:020000042000DA
:1000000000980020A5040020AD040020C5040020B5
:1000100000000000000000000000000000000000E0
:10002000000000000000000000000000DD040020CF
:100030000000000000000000F5040020FD1D00206D
:1000400035230020232400200D310300112400203B
:100050009D2300208D3103003524002043240020FF
:10006000F9040020F904002083240020AD310300AE
:1000700095320020531E0020F9040020F9040020CE
:10008000F9040020F9040020F9040020211B0020BD
:10009000251B0020291B00202D1B0020311B0020C8
:020000042000DA
:1001600032000000C5060020232000202F28002098
:10017000000000000000000063800200BD8002005B
:10018000910A0020FB8002001981020035810200E3
:100190005D810200D5210020390B00207D0A00205E
:1001A000870A002000000000000000003F0000005F
:1001B000F487002000080000680D0800900200008D
:1001C00068070800F405000004100800000800009B
:1001D000000000002000000048000000580000005F
:1001E0006800000004010000160100002801000062
:1001F0002E010000202A00008E2E000001000000C9
:1002000088130000AD200020E9600200FD93020089
:100210009F11002019280300A57402000D0600207C
:1002200003000000D5200200372800200400000051
:10023000D74902000F490200050C0020639102001B
:10024000B7910200BF910200078202007182020092
:100250005C430020AD8302009384020041850200CC
:1002600015860200378602005F860200758602004E
:10027000F9870200258902005D8A0200D38C020002
:10028000098D02000F900200438D0200278E0200AC
:10029000F98E0200478F0200F3090020D58F02007B
:1002A00049510200775102002F5202001000000055
:1002B00020030000803E000000000000000000005D
:020000042000DA
:1002C000504600030003983A6400F401B80B000C98
:1002D000B80B120030003000CD009A01120024004B
:1002E00030006400B0001800280012001200D0078F
:1002F0000000FFFF00000000000000000000000000
:100300001F000002444131343538302D30310000B7
:1003100000000000000000000000000000000000DD
:0403200000000000D9
:020000042000DA
:10034000FFFF010000C201000000000000000000EB
:100350000000F40101000112000A1107B75C49D244
:1003600004A34071A0B535853EB0830700000000AE
:10037000000000000000000000000000000000007D
:10038000000000000000000000000000000000006D
:10039000000000000000000000004449414C4F47AD
:1003A0002D5350530000000000000000000000002A
:1003B000000000000000000000000000000000003D
:1003C000000000000000000000000000000000002D
:1003D0000000000000000000000000CAEA80D00712
:0403E000064064323D
:020000042000DA
:100440000348854603F07AFC00480047C7200200B5
:10045000009800200F4906200880FF200E49013037
:1004600008600E4988683E2290432E308860002242
:10047000052000070280018A0F231B021943018215
:1004800001210748C90404C1401E0028FBDA62B6F6
:10049000704700000034005080E100E0003300505D
:1004A000FF0B00001548804715480047042071469F
:1004B000084203D0EFF3098012490847EFF30880A0
:1004C0001049084704207146084203D0EFF3098021
:1004D0000D490847EFF308800B490847042071468F
:1004E000084203D0EFF3098008490847EFF308807A
:1004F00006490847FEE7FEE7FEE700005504002036
:10050000410400207105002011050020190D002074
:1005100005221207518A8023194351821249036828
:100520000B6043684B6083688B60C368CB60036972
:100530000B6143694B6183698B61C369CB6108625D
:100540000A48836A4B62C36A8B62036BCB62C36BDC
:100550000B63436B4B63806B8863908A800601D585
:1005600000BE7047FEE700000018080000ED00E044
:10057000052109070A8A04231A430A820A8A0223E8
:100580001A430A820A8940231A430A811B4B01221B
:100590001A601B4B08221A804A8A80231A434A8217
:1005A000184A036813614368536183689361C368A1
:1005B000D361036913624369536283699362C369B8
:1005C000D36210631048836A5363C36A9363036BF7
:1005D000D363C36B0B4A40321360436B5360806B31
:1005E0009060888A800608D500BE488A012280086B
:1005F0008000D203104348827047FEE780E200E0AB
:10060000003300504018080000ED00E070B51646B9
:100610000C460546012802D00C2D26D10DE00622FD
:100620002149224803F09CFB00281ED006221F49C6
:10063000304603F09BFB062012E01D4D2968087828
:10064000C00610D52078202803D200202070042076
:1006500070BD0A7E30463A3103F088FB2868007E80
:100660002070002070BD012070BD32462146284612
:1006700003F082FB70BD70B50E480F49C405228897
:1006800080252A4322800D4A53891B0701D4401E2E
:10069000FAD20B4A012010600622044803F066FBE0
:1006A0002088A843208070BD383E030001800020D0
:1006B000C0060800A0860100D47F0400200000507E
:1006C0000080004008B500F044FA002405252D07FD
:1006D00009E004216846009403F054FB002816D07A
:1006E00000F095F913E02889000610D50120800755
:1006F000006B00040BD403F04BFBC00707D10420B0
:1007000003F04CFB064603F04FFB002EE1D102F054
:10071000C9FF0028E7D172B602F0CDFF01F004FF57
:10072000042806D002280BD0032809D0012810D0B5
:1007300010E04E480078012801D0032000E002209C
:1007400000F00AF830BF4A48016904229143016170
:1007500000E030BF62B6C6E7F8B504466846052536
:1007600004702D07288A0421084328824148424FFB
:10077000C0690126012811D9032C18D103F01AFBF6
:10078000002814D003F01CFB002810D0032003F035
:100790001DFB00280BD00220387009E0032C06D185
:1007A000032003F013FB002801D03E7000E0022478
:1007B00068460470204600F023F800202F49022CE0
:1007C000087001D0032C1AD12D494A88FF23013328
:1007D0009A434A806A882B4B1A804A8832434A805F
:1007E00000900099491C00911429FADB6989890855
:1007F0008900491C698169894906FCD56880F8BD72
:1008000010B5022801D0032828D119490B69042208
:1008100013430B61052109074B8A2024A3434B8214
:100820000B8A022423430B8210230228488A16D005
:10083000104348827F220888920180242043088048
:100840000020401CC0B20A28FBD3488A18434882C3
:100850000D48521E42610888A043088010BD104315
:100860004882488A9843488210BD0000540208001C
:1008700000ED00E0E0010020C406080058800020E0
:10088000200000505A800020008000407047000087
:1008900021480178002902D08021417070471F490A
:1008A000002008701E49C87070471B480178002955
:1008B00002D0812141707047184901200870184901
:1008C000C870704714480178002902D08221417015
:1008D000704700BE11490220087011490120C870FC
:1008E0007047002804D0012803D0022802D1E9E78C
:1008F000CEE7DAE77047094900200978002904D0DB
:10090000012903D0022900D102207047012070473D
:100910000148C07870470000088000205402080099
:10092000C606080070B505200007018930229143F2
:10093000018101898022114301810189890889008F
:10094000491C01810189082319430181B5490C889B
:1009500014430C80448A9C434482058940242543E7
:100960000581058A0426B5430582858AAD07FCD535
:10097000AD4E002575600E8801252E430E804D89F1
:10098000AE05AA4D0E8801D52E4300E0AE430E8081
:100990000D887826B54328350D800D880626354309
:1009A0000D80458A1D4345820B8893430B80028945
:1009B000A24302814889800503D59A490520603108
:1009C0008880012080070168821591430160984862
:1009D00001683F2252029143421489180160016864
:1009E00002031143016070BD10B5924803F0F4F9A1
:1009F00010BD70B58B4C6088C006050F03F0F2F98E
:100A000061881E2291436A001143618070BD70B5F8
:100A100089490120C863C86B0028FCD101208007E8
:100A2000C169864800220368994200D202607E4C68
:100A300001266378824D002B04D06270016003F0C0
:100A4000D7F911E0026819238A1ADB019A4214D3FC
:100A5000016003F0CDF92988884201D9411A00E0EC
:100A6000091A89B2182908D32880012003F0C6F991
:100A700003F0CAF9002800D1667070BD08B503F014
:100A8000C9F9009008BD08B503F0CAF9009008BD87
:100A900008B56C4901204A695206D20F13D04A6941
:100AA0009206D20F0FD000220A610092FF225F321D
:100AB000009B5B1C00939342FAD34969C907C90F95
:100AC00002D003F0B3F9002008BD1FB5684601F05D
:100AD0001AF9009803F0B0F91FBD10B55A4A00206A
:100AE000117800290DD054490120C863C86B002833
:100AF000FCD101208007C06954490968884201D2AD
:100B0000012010BD00201070FFF7F5FE022803D071
:100B1000FFF7F1FE01280BD14D4908200880052080
:100B20000007818A8906FCD4418A80229143418250
:100B3000002010BD0020704710B546490020086015
:100B4000FFF752FF01208007016B4900490801634C
:100B500010BD10B53C49012008703D4908200880AF
:100B600003F070F900F03AFEFF2401340D20214615
:100B7000800103F06DF9FFF77EFD02F065FA0120B8
:100B800003F05AF901F0B0F9FFF7CCFE042000F0B1
:100B900041F8072000F03EF80A2000F03BF806205C
:100BA00000F038F80B2000F035F8012000F032F8A2
:100BB000022000F02FF8002000F02CF826480068F2
:100BC00003F04CF900F08BF800F0D4FDA0050168AB
:100BD00021430160FFF779FF0024FFF759FE01F080
:100BE000BAFF02F059FDFFF7A7FF05200007C482F6
:100BF0000C494888E0229043A0304880012003F04F
:100C000033F910BD154910B5884200D000BE03F07D
:100C100031F910BDC106C90E012088401049086095
:100C200070470000200000500C80002000100000E1
:100C300000020040E2040000C00000407C04080004
:100C4000780408000010005007800020CC490020E4
:100C5000003300508C030800049000201111111182
:100C600080E200E0FFB581B01F460E464D780C785B
:100C7000002003F005F9042824D000281DD121E02C
:100C80004148816E2E206043091888880207120FA0
:100C9000130003F0FBF8070505050F050F050F000E
:100CA0008204920E062A05D27278012A12D00722F7
:100CB00010438880641C6407640F28466D1EEDB2E3
:100CC0000028DDD13B463146039A019803F0E4F851
:100CD00005B0F0BD204603F0E5F80020F8E770B558
:100CE0002A480378021D0021294D07E0CC00165D3B
:100CF000002E01D12418A560491CC9B29942F5D330
:100D000070BD028908892349101A80B2884201D92E
:100D1000012070470020704781692039897F0829A8
:100D200005D21B4A89001032515881617047FEE795
:100D30001A48194901611A4941611A4981611A49E0
:100D4000C1611A4901621A4941621A4981621A490C
:100D5000C1621A4901631A4941631A4981631A49F8
:100D6000C1630E481949403081601949C1600120B2
:100D70001849C00608601849CA691202120ACA61F5
:100D80001449803908607047D8020800040608003A
:100D9000AC4400203075000094270300008400401C
:100DA00062B600DF28A30200704701DF1CCA020000
:100DB000F8BD02DF40CB0200F5E703DF84D4020078
:100DC00004DF89B0941B030005DF00B5EC0C0300C1
:100DD00070BD07DF80E100E000ED00E070B5164671
:100DE0000D46104603F04CF8002869D0340A30460E
:100DF00003F046F8012812D0A87A1E2811D02946FF
:100E00000A310E2845D019DC801E030003F03EF89D
:100E10000B255829582D58315839583D5800022073
:100E200070BD3146274803F043F80021204603F007
:100E300045F80221304603F047F841E018283CD03D
:100E400006DC102819D012282BD0162838D130E013
:100E5000522822D0D22833D127E0204603F03AF896
:100E60002EE0204603F03CF82AE0204603F03EF84E
:100E700026E0204603F040F822E0204603F042F846
:100E80001EE0204603F044F81AE0204603F046F83E
:100E900016E0204603F048F812E0204603F04AF836
:100EA0000EE0204603F04CF80AE0204603F04EF82E
:100EB00006E0204603F050F802E0204603F052F826
:100EC000002070BD01280000F8B50D4606468100DF
:100ED0002B48EA884458521C20686B89018F294F9F
:100EE00051430091014640314A89C989511A8AB259
:100EF000991A89B2B94214D29A4212D0294603F003
:100F000037F82D892049009803F038F82818801CFC
:100F10004034E0823002401C80B2042102F0D4FF51
:100F2000F8BD2821304603F02FF8F8BDF8B5054686
:100F3000870013480C46C059C9880068114E024604
:100F400040325389D2899A1A92B28B1A9BB2B34219
:100F500011D20B4E8A420ED003F01CF8F059052234
:100F60005F30611C02F002FF2802401C80B20521A4
:100F700002F0AAFFF8BD2821284603F005F8F8BDC5
:100F80004C030800FF7F00001027000070B50446E6
:100F9000007800250D2801D00A2200E002225A49DB
:100FA0004B7A002B06D00D2804D0637C032B01D094
:100FB000432551E0097A8A4339D10D2809D00E28FA
:100FC00002D00F2803D134E0607C032804D34025ED
:100FD00042E0607C0328FAD8A07C0428F7D20A29D2
:100FE00008D0607C012822D0022820D06078032815
:100FF00009D811E002F0D4FF012806D16078032857
:1010000003D0002801D0492526E002F0C9FF0028BE
:1010100002D160780228F6D83020035D22462046AF
:10102000E17C3132143000F019F8054614E0422515
:1010300012E002F0B5FF012807D16078052804D13D
:10104000A01D02F0B3FF0028DDD002F0A9FF0028A8
:1010500002D160780228D6D8284670BDFFB500209E
:1010600086B001216A461170044605910021002CCA
:1010700006D0089D099A1F239A4234D9402032E0B5
:101080001C23069D079AF7E76B185E78330002F081
:10109000FDFE1D2610101010101010101026262610
:1010A0002626262626262626262610101010101064
:1010B0002600059B03E06F46FF5CB74204D05B1E31
:1010C0005BB2002BF7DA03E0002B01DB4A2006E0DD
:1010D000059B6F46FE54059B5B1CDBB205936B5C66
:1010E000491C5918C9B2914201D20028CCD0914272
:1010F00002D04A200AB0F0BD641CE4B2022CF9D23E
:101100000028B3D0F6E700009805080070B5EFF3AB
:101110001085012080F31088264802F04DFF044618
:10112000002D1DD0012080F31088002C23D02046F4
:101130002038C08B204988421DD16189208902F066
:1011400041FF05000ED021461031A3896289208914
:10115000A847002806D001280DD002280BD105E0B1
:101160000020E0E7204602F033FF04E0114821466A
:101170000C3002F033FFEFF31084012080F310886D
:101180000C480068002802D1012002F02DFF002C3D
:1011900003D0012080F3108870BD0020FAE710B55D
:1011A000BC21064802F026FF0549012002F028FF75
:1011B00010BD0000A80508003883000004060800E0
:1011C0000D11002000B502790021130002F05EFE2F
:1011D0000C34070735352035353535352734427918
:1011E000042A27D8C279530707D05207520F012A81
:1011F00003D0042A01D0052A1CD18279002A01D00B
:10120000012A17D1007AC01F0A2816D3062114E03C
:101210004279521E0A2A10D3082242710DE0407909
:1012200042070AD04007400F012806D0042804D006
:10123000052802D00A2100E00721084600BDF3B5C9
:1012400081B001980C460102CA1D022332480E31BA
:1012500002F0DCFE04700199054602272F488E003B
:10126000002C06D0042C16D0062C10D0072C3FD111
:1012700008E0815905224968897C114069708059CC
:10128000C77335E0084602F0C7FE687030E0805949
:101290000F21C1732CE0044680594068417C01292C
:1012A00002D1007E01280FD0019802F0BBFE01217F
:1012B0000028A0590BD04268D07D00281CD00128FE
:1012C0001AD004280DD00FE0002068700DE04068AF
:1012D000C27D022A01D0042A06D1007C02280BD14B
:1012E00002E0107C022807D06F70A1590320C87358
:1012F000284602F09DFEFEBD6970F6E701460A78B9
:101300000120042A01D90020704749780029FBD028
:101310000129F8D170470000021C000028050800D0
:10132000FFB589B00D4600206946059008720B98FC
:10133000000A009002F076FE07460B9802F0A0FD2E
:1013400000287DD00B982978000A8400784E012966
:1013500063D0042904D0062948D0072968D125E0A4
:101360003059C17B032901D0042961D16978002952
:101370001AD040681022A91C02F0F8FC002F06D0F9
:101380003159C87B032807D0042808D050E03059D1
:10139000C07B032803D04BE00B20C87348E0052135
:1013A000009802F04BFE43E00120B6E03059C07BCC
:1013B0000E283DD1009802F02FFE002103E02A18EC
:1013C000401C9170C0B21028F9D3688A694608831E
:1013D000294606A808221431023002F0C7FC06ABE9
:1013E000AA1C3946009802F02FFE21E03059C07B3C
:1013F0000F281DD1AA1C0A21009802F02BFE002FF5
:1014000004D03946009802F02BFE11E000231A4662
:101410003946009802F02AFE0AE0012F08D10B9805
:1014200002F02EFD01281CD0002801D002200590DA
:101430006846007A002811D002AA0521009800E031
:101440000CE002F007FE6846027A6020024368461C
:10145000027201233946009802F008FE05980DB08B
:10146000F0BD3059C07B0228E2D16878002851D005
:1014700002210B9802F028FD305907224068A91C70
:10148000173002F073FCE878002804D13059406826
:10149000407C01283AD0009802F0EEFD002837D0B9
:1014A000297A009802F0EEFD002833D0009802F06F
:1014B000EFFD0121009802F0F1FD00282CD03059F9
:1014C0004068417E00292BD0042929D0C17E027DAD
:1014D0001140C17630594068017F427D114001774B
:1014E0006846007A0028A7D1305902214268009846
:1014F000173202F0AFFD305941684031897B002935
:1015000013D004210098FFF79AFE91E7022004E02F
:10151000062002E0082000E00320694608728BE7FD
:101520000021C17630594068D9E70B21C1737FE7AC
:101530002805080010B50C4602F0B6FD21888A0087
:10154000954989580968002902D0944BC968995077
:1015500010BDF8B50E461046150A02F091FCAC001D
:101560008D4F002817D0142815D0152809D03859C8
:101570006030C07BC00606D53D21284602F004FD40
:1015800009E0022008E002F095FD012803D1314670
:101590002846FFF799FC002039590968002902D034
:1015A0007E4AC9681151F8BDFFB50F461546110AAC
:1015B000794A8800125881B012681E46002A01D06C
:1015C000D46803E0754A002314581350002C18D037
:1015D000201F4288724B9A4213D10088602810D194
:1015E0002046403002898A420BD18088002808D0EA
:1015F000A068002802D0204602F062FD204602F0DA
:1016000065FD33462A463946019802F065FD05B06E
:10161000F0BDF8B5160A604CB500605917460028B1
:101620001CD04030017E104602F04EFC384602F0DD
:1016300027FC012802D006280FD108E0615960314B
:10164000C87B020709D5F7221040C87305E060592E
:101650008030417C304602F097FC0020F8BDF0B5A8
:101660000646050285B0681C009080B201460290D3
:101670004C4802F01DFC0121029802F025FC02F00A
:1016800019FD454CB7000128E05903D06030C17BFB
:10169000E72214E06030807B002809D07D225201CF
:1016A0004048029902F01EFD0321029802F00CFC52
:1016B000304602F01DFDE0596030C17BEF22114041
:1016C000C173E1596031C87B420711D5FB2210403C
:1016D000C8730098ED1D82B232480024A9B20423D9
:1016E0000D3802F093FC4680047002F0A1FC8EE7F6
:1016F00000220121304602F001FD88E710B51046B6
:10170000140A02F0BDFB0B280CD02349A000085896
:101710006030C07BC00603D53D21204602F034FC7A
:10172000002010BD2046FFF79AFFF9E770B510467C
:101730000D46140A02F0A4FB002819D0142817D073
:1017400015280BD01449A00008586030C07BC00693
:1017500006D53D21204602F017FC09E0022070BDAD
:1017600002F0A8FC012803D129462046FFF7DEFB42
:10177000002070BD70B50C480378021D00210B4D90
:1017800007E0CC00165D012E01D12418A560491C8C
:10179000C9B29942F5D370BD4C03080020800020E7
:1017A000388300002404000004060800D44600200A
:1017B000052000070188302211430180018803229F
:1017C00011430180704705200007018830229143B2
:1017D000018001888908890001807047FEB50020DA
:1017E000DC4E034628220021424392198C00491CFA
:1017F00013510A29FADB401C0428F3DB01F0B6FB85
:10180000D448002208380260426015460024D248BD
:101810006900475A0120A04080B207421CD028200E
:1018200068438019A1004058411C19D0002810D0ED
:10183000C117224602F068FC2A0102F065FCC54B84
:10184000083B1A685B681043C24A1943083A1060A3
:101850005160641C0A2CDDDB6D1C042DD6DBFEBD43
:101860000095019400BEE3E7F8B5164604460D4620
:101870000A461F460120002102F046FC220102F028
:1018800043FCB44B083B1A685B681040194008439E
:1018900000D100BE032C00D10424B04960014018DF
:1018A000690008183E43C680F8BD70B504460D4671
:1018B0000A460120002102F027FC220102F024FC4C
:1018C000A44A083A1368526818401140084300D1EE
:1018D00000BE032C00D10424A0496001401801215E
:1018E000A940818070BD70B504460D460A460120AE
:1018F000002102F009FC220102F006FC954A083A98
:101900001368526818401140084300D100BE032CF0
:1019100000D104249149600140180121A94041806F
:1019200070BDFFB581B00C4605460A461F46012032
:1019300000210A9E02F0E8FB2A0102F0E5FB854B3C
:10194000083B1A685B6810401940084300D100BE8C
:10195000002E2146284602D0FFF7C5FF01E0FFF721
:10196000A4FF3B4621462846039AFFF77DFF05B0BA
:10197000F0BD70B504460D460A460120002102F074
:10198000C3FB220102F0C0FB724A083A1368526896
:1019900018401140084300D100BE032C00D104249C
:1019A0006E496001401800880121A940084000D01C
:1019B000012070BDFFB585B01446012000210F9FA6
:1019C000069A02F0A1FB059A120102F09DFB614A02
:1019D000083A1368526818401140084300D100BE0D
:1019E0005FA00068029020461338FF26013686402B
:1019F0000090B0B200F09EF8002F01D0012100E06D
:101A00000021584D8140A889B0430143A9813F205E
:101A100000F090F88740A889800980010743AF81D2
:101A2000B0B200F087F80E998140288AB043014394
:101A300029820126009930468840074680B200F08E
:101A400079F808998140288AB843014329823F20C8
:101A500000F070F8059902AA525C0699511881406D
:101A60004048620040381018428B9209920111439D
:101A70004183A007C20EFF21914080209040002C9E
:101A80000BDA2207120F083A9308374A9B009B187B
:101A9000DA698A430243DA6107E0A308334A9B000C
:101AA0009B181A688A4302431A60E006C00E8640FB
:101AB0002F48066009B0F0BD70B5012421461338E7
:101AC00081400D4688B200F035F884402548C18930
:101AD000A9430C43C48170BD0246133A042A05D8B9
:101AE0001C4A8000A032801880384163704710B5CE
:101AF0000446133804280BD82046FFF7DDFF1549AC
:101B0000A000A03140188038406B002801D08047E9
:101B100010BDE106C90E012088401649086010BDBD
:101B20001320E4E71420E2E71520E0E71620DEE7C3
:101B30001720DCE700280AD0411E4840C003010CF2
:101B4000002001E04908401C0029FBD100E01020E2
:101B500080B2704728900020E446002000300050FA
:101B600001090F190014005000ED00E000E400E04E
:101B700000E100E080E200E0084301218903034620
:101B80000B432E490B802E4B18430880092002433B
:101B90004A80704729490A880F239B0100079A430E
:101BA000800D02430A807047244826490288022398
:101BB0001A430280491E02D302889207FAD40021F8
:101BC0000181408970470AE000BF00BF00BF00BF2D
:101BD00000BF00BF00BF00BF00BF00BF00BF401E6E
:101BE000F2D2704770B50222510204464E003046D0
:101BF000FFF7C2FF1420FFF7E6FF002C01D00920F9
:101C000000E00720FFF7C6FFFFF7CEFF05460120E3
:101C1000FFF7D9FF022200213046FFF7ADFF002C6D
:101C200001D0092000E00720FFF7B4FFFFF7BCFF59
:101C30004019024A0021118070BD000000150050BB
:101C400001400000A086010008B589210520000799
:101C500001810121614A49031180018880221143D9
:101C6000018001888908890001805D48018A02227B
:101C70001143018200F062F902F04CFA02F050FACE
:101C80000020694601E00888401C088008889128E7
:101C9000F9D308BD08B55349002008804880534A4D
:101CA000514BD380FF23D2331381C880C32151808D
:101CB0004F4A082111806946088003E06A4611886E
:101CC000491C1180694609889129F7D36946088023
:101CD00003E06A461188491C1180694609889129E8
:101CE000F7D3694601E00888401C088008889128DD
:101CF000F9D308BD3F4A5080918001201080D088E0
:101D0000C007FCD17047F1B5FFB0FFB094B011AC83
:101D100033480494008AA41C1090FFF795FF3148C3
:101D200001880F9141880E913049CA880D920A8925
:101D30000C92C2880B92408B0A902F4840880990E1
:101D400048888446FFF7A6FF00252B46FF2111A8EF
:101D5000FFF7D0FF00210A460846049E275C365C48
:101D60007E40F607F60F8E401643491CC9B2F2B208
:101D7000082906D1FFA9C96C4A556D1C0021ADB2D6
:101D80000A461030FF2680B2B600B042E5D95B1C8F
:101D90009BB2022BDAD31249109808821449002012
:101DA000088010480F9901800E9941800F490D9AC3
:101DB000CA800C9A0A810B9AC2800A9A42830E4A00
:101DC00009985080604648800520000701888022DD
:101DD000914301807FB07FB015B0F0BD000200409C
:101DE000E030005000240050808000006028005047
:101DF00020200050003500500026005002480068A6
:101E0000002800D000477047DC90002030B4344CEC
:101E100033493448603409E043681A780A6002683C
:101E20005B1C521E0CC00838002A05D0A28B9207FA
:101E3000D20FF1D130BC7047002242604B680224BF
:101E4000A3434B6081680029F4D0826030BC00203D
:101E5000084710B5224881680907090F01291AD0DF
:101E600002291CD0042917D00C2914D11D4A117E37
:101E7000012910D141690906C90F0CD00021D16098
:101E8000116183885B085B0083805369002B02D05B
:101E900001205161984710BD00F004F810BDFFF714
:101EA000B5FF10BD0F490E4809E002680B691A70B2
:101EB000CA685B1C521E0B61CA60002A04D04269CA
:101EC000D207D20FF1D1704700220A6143685B0844
:101ED0005B0043604B69002BF5D000204A61184736
:101EE000001100503880002030B58E498E48CA0558
:101EF000148880231C4314808C4C65892D0701D4E1
:101F0000491EFAD28A4C012121608A4C0188218025
:101F100089494088088010889843108030BD00208F
:101F2000704770477047704700207047012189074C
:101F3000086B0722104308637047704730B580492B
:101F40007E4808607F494C2008807E4C7E4B203CB8
:101F500023827F497D4848807F487E4901807D49B2
:101F600019314180222141818121890001827B49EF
:101F700041827B490183794911314183764A79490C
:101F8000203291804122784912018A80774ACA80A2
:101F9000764D1035CD810A824A82921C8A826A1F50
:101FA000CA82FF2246320A83714A4A83714A592102
:101FB00011807049704D20310D8043254D806F4D4B
:101FC0005582D5228A80FF22D3320A816C4A4A8107
:101FD0006C4A8A816D4A6C4911805A496C4A603951
:101FE0004A80CA8810252A43CA80634A0A3A0A816D
:101FF000544D684A403D6A80638208224A814E49B6
:102000005C4A0988403A11824A49634A098811802A
:1020100062490978002901D03021018330BD400890
:10202000704700B58BB05E4A42625E4A82625E4A89
:1020300042615E4AC2625E4A02605E4A02625E4A73
:1020400042605E4AC2613E4A3C48002110603C4802
:102050004038026B03129A430263426B1F231B0436
:102060009A4303231B04D218426355480268C312E3
:102070009A430260026803139A430260684641541F
:10208000491CC9B22829FAD3014628224D4801F03B
:102090006DFEFFF753FF01F0ABFE4B4908800020B7
:1020A00001F0ACFE01F0B0FE0BB000BD10B5244A4B
:1020B0000F2122480902106021484038426B1F233B
:1020C0001B049A4303231B04D218426300060268D0
:1020D000D208D2000260052000070289920892000F
:1020E000521C0281028908231A430281028A0A4390
:1020F00002820E484189890504D5018878229143DE
:1021000008310180FFF71AFF3048006F007800287F
:1021100004D02F4800880B496039C880012001F0A5
:10212000A3FE10BDA0860100087F0400200000501F
:1021300000800040560208004A0308004C0554077E
:1021400080000040602C00507F7F0000AC29000020
:102150000022005009090000002400502204000061
:1021600030D00000EE110000002500502E020000CB
:1021700044200000402800500D950000024200005D
:10218000E4DC00001092000053780000002A0050A8
:102190008B1000009DD500000026005054800020C8
:1021A0001F1F0020231F0020291F00202D1F00209B
:1021B000251F00203B1F0020271F00201F2000207C
:1021C000000200402000080078040800E001002020
:1021D0005204080070B50125AD07AC6B2046FEF730
:1021E00052FCC04901F0CAFE27221201511A00D147
:1021F0000121BD4A50601160286B082188430843C3
:102200002863BA480460BA480068002802D0A04297
:1022100000D200BE70BDF0B587B000246A461472CB
:10222000B4490A68002A5DD0114640318B7C002BEE
:1022300058D0B14B012813D0108D1A460007803AB0
:102240000125126FC00EED044019105A6A46800B2A
:1022500010711079002845D01079012802D00DE0C6
:10226000D86C09E008894E256843A44D1A684019C6
:10227000105ACA7C000A801A6A461072107A002826
:1022800029D09F4A9E48603A007B956E05E02E2239
:102290004243AC18401C4007400F6F463A7A561E26
:1022A0003E72F4D2A2785406640E3C713A79D40698
:1022B000E40E3C769A692E235843904B463BC01857
:1022C000105A3A46C006C00F38713879002802D13A
:1022D000107E002806D0087D002803D1C87D082282
:1022E0001043C87507B0F0BD10B50520000741893F
:1022F000890708D0418989088900418181494A8834
:10230000520852004A800189802211430181018ACA
:10231000042291430182818A8907FCD501F006FFDE
:10232000012080070169490700D500BE01694907FE
:10233000FCD510BDF8B5744EF08800282DD10120D1
:10234000F08072490820088005273F0778898007B8
:1023500020D0B88A400701D500F076FE694D288864
:102360008021084328806A4CFF2060800420208060
:10237000FFF71EFA7D21C900E088A28800048018BA
:102380008842F9D905202080B0887880298880206B
:10239000814329805F4910200860F8BD70B5FFF7C0
:1023A00012FAFFF7A1FF0026574C0520E680000730
:1023B000418A802291434182544801894908490059
:1023C0000181D005816904221143816101F0B4FECD
:1023D0005049102080310125086001F0B3FE01F062
:1023E000B7FE484826704089800510D560780028DF
:1023F0000DD1494865700088C00708D10120FFF75A
:10240000F1FB8B218900884201D90220607070BDE8
:1024100010B501F0A3FE00F05DF83B490120087003
:1024200010BD10B501208007008A000601D500F01C
:1024300051F810BD10B50120FFF7EDFE01F094FE3C
:1024400010BD10B50124A407208A000718D502206A
:10245000FFF7E1FE01F08EFE2068400040086100B9
:10246000084320602068C00FFCD11F4880300168FD
:102470000906090E01D001210160234904200870DA
:1024800010BD70B52548008885062548AD0E446806
:102490001948006F0078002802D1284601F070FE2C
:1024A00020480089184EC00507D520060BD5E00747
:1024B00009D0284601F06AFE03E0200603D5E007B4
:1024C00001D003203070200403D5E00501D502209F
:1024D000307070BD10B50C490120887001F05CFEB1
:1024E00010BD000071020000400000406480002028
:1024F000608000206C030800E00100204A00080012
:10250000380308002000005056800020003300509F
:102510000016005000E200E00015005000200050BE
:1025200000020040002C0050FEB55C4C0026606D9F
:1025300037460090FEF7ECF9594D002802D1287972
:10254000022801D100200090FEF7C7FA00280ED122
:1025500001F028FE00280AD051480126C078002842
:1025600005D005252D07A88AC00701D0042692E0D2
:1025700001F00EFC00287DD14A488069002801D076
:10258000606D00904648009C8178684601F010FE1E
:1025900000286FD042488178684601F0F3FB00289C
:1025A00079D0002001900094FF202D300124A40751
:1025B000216A8142FCD33A488178684601F0F8FDEF
:1025C000002868D036488178684601F0DBFB002897
:1025D00061D00098002804D00199002901D0401E44
:1025E00000903149002209788320022900D1B520CA
:1025F0002E490B78012B00D121300A70E26B0F219C
:10260000920A92020A43E263E16B294A8002114076
:102610000143E163E06B3721C002C00A890508432A
:10262000E06300980426002801D0001D0090C0023D
:10263000642101F0A3FC002800D0401E1D49086061
:1026400017490979002900D0012101F0B7FD1A4886
:10265000C06A8047FEF76EFA002808D0288830212B
:102660000843288028880321084328800127206BFD
:10267000000400E00FE0C00FF9D010480168C90560
:10268000FCD5002F01D0FFF79EF801F09DFD2889B1
:102690008021884328813046FEBD00006002002072
:1026A000C6060800A805080054020800578000204C
:1026B000FF03E0FF608000201C07080000020040CC
:1026C000FFB5002685B0154642486A46344637466F
:1026D0001082002904D0042203A801F047FB02E085
:1026E0000020C04303900020039916E00A460241EF
:1026F000D20710D00F9A03019A181379022B02D037
:10270000102B05D102E0761CF6B201E0641CE4B2A5
:102710001289D21997B2401CC0B2A842E6D30094E5
:102720000023324601970E99059801F053FD0024CD
:102730002AE003992141C90724D00F9927017E1867
:10274000F18802A8009101900F983279C359059839
:102750003189008801F044FD002813D171890029D6
:1027600010D03079022807D10F980222C05904A94D
:1027700001F0F6FA00280DD0684671890089F268E8
:1027800001F034FD641CE4B2AC4201D20028D0D088
:1027900009B0F0BDF0684078FF2809D008990029F9
:1027A00006D005996A4609781289511A089A115477
:1027B0006A461089411C11807189F26801F016FD8A
:1027C0000028DFD16B4602220121188901F014FD97
:1027D000D8E7000003280000F8B514460F461E464F
:1027E0000546428801880623204601F00FFC044676
:1027F000287901F007FD208027716680204601F0CE
:1028000017FCF8BD70B51446428800790D460102E8
:10281000042311480C3101F0F9FB002D01D01321E4
:1028200000E012210170448001F002FC70BD10B57F
:1028300000F09EFD10BD70B5064615460C463620CC
:1028400001F01EFB022805D1E2B2362329463046AC
:1028500001F0DEFC70BD00000D30000010B500F08E
:10286000E3F90120FEF73DF810BD0C2250430F4A5A
:1028700010B580188078FF2803D0088800F028F869
:1028800010BD00F0A2F910BD10B500F09EF910BD0A
:1028900010B500F0B7F9002801D000F096F910BD8E
:1028A000704710B500F091F910BD00008080002045
:1028B0000021EE4A05E0834201D101207047491C06
:1028C000C9B20C234B43D35CFF2BF4D100207047DB
:1028D000F8B505460024E54E0AE080198168002914
:1028E00004D0641CE4B22846884701E0641CE4B2CA
:1028F00020460C214843315CFF29EED1DB4E0024F9
:10290000183609E08F19B968002903D0FFF7D0FF06
:10291000002808D0641CE4B221460C204143705CBE
:10292000FF28EFD1F8BD641CB968E4B22846884797
:10293000F2E770B5CD4ACE4C154618350DE0891832
:102940004968002907D0C1B20C2359438918496846
:10295000401C607025E0401C607060780C21414391
:10296000535CFF2BEBD10AE049194968002903D0D9
:10297000FFF79EFF00280DD02078401C20702178A2
:102980000C204143685CFF28EED10020607020706D
:10299000012070BD20780C21414349194968401C31
:1029A00020708847002070BDFFB581B004461E46E8
:1029B000154618460A9F01F09BFC009026702146A0
:1029C0003846009A01F02AFC002803D000BE0020FF
:1029D00020700BE02278AA4200D900BEAA4200D3A0
:1029E0002A4622700099029801F0C0F9009801F07F
:1029F00055FC05B0F0BDF0B59D4899B0C068002801
:102A00005ED1502332220D219A4801F0FFFA04468C
:102A1000974E0025F0600E2020706570A580A020E4
:102A2000A081E0810720207401206074A5742146F4
:102A30000B20143100901791481E20231C22039074
:102A4000FFF7B2FF21460C2031310090481E2023B1
:102A50001F2218910590FFF7A7FFF0681A22C17C8A
:102A60002030511ACEB2007C1D21081AC7B2684628
:102A700005743046384323D03E206946087406AAC0
:102A800004A9022001F0CAFB002803D000BE68465A
:102A9000057415E06846017C002911D08E4205D3EB
:102AA000E27C179806AB1218039807E08F4207D311
:102AB0002034227C189806AB1218059800F0C3F851
:102AC0006B48C06819B0F0BD70B5694E044685000A
:102AD000361D7059002813D121020A23322266487C
:102AE0000E3101F093FA0A210170002C00D000BED3
:102AF0007051818041800021C1807D21C900018108
:102B0000705970BD70B55A4DA868002821D1594838
:102B1000222332220D210A3801F078FA03210170B4
:102B20000446A8600A205149607010222339A01C75
:102B300001F01CF90021618221756175A020E082FD
:102B40000820208310206083A1836420E083203448
:102B50002170A86870BD1CB545480C21183001F0E3
:102B600063FB01246846047004716A4601A935209C
:102B700001F054FB002801D0684604703C49002055
:102B800018310C2242435218401C00061471000EEA
:102B9000F7D036493220243101F04CFB002132209D
:102BA00001F092F91CBD70B50D4601023248144681
:102BB0002C2332220C380E3101F028FA0146203144
:102BC0000D724C7201F034FA70BD10B5FFF713FFAF
:102BD00001F02EFA26490020C8600221322001F0BF
:102BE00073F910BD10B50446FFF76EFF01F020FA2F
:102BF0001F4A0020A100121D50500421322001F074
:102C000063F910BD10B50121322001F05DF9FFF725
:102C100090FE10BD8DE610B5FFF774FF01F008FAC5
:102C200013490020886010BD114910B50020FF2312
:102C30002431012442008B545218401CC0B25470FD
:102C40000A28F7D310BD70B50646481C107009203D
:102C500015460C46507022461946A81C01F086F80D
:102C60003078A41C0019307070BD00002847002087
:102C7000688000200E3400000E380000FEB51C46AF
:102C8000089B07265D4D6F4668C71346224600F035
:102C9000DAF8FEBD10B5104601F0F2F8002809D1AF
:102CA000012332220D21564801F0B0F901210170B3
:102CB00001F0BEF9002010BD70B5504C0D78241FF6
:102CC0000F2D13D008DC012D12D0022D0AD0032DB8
:102CD00014D00E2D06D117E0102D07D0112D05D0E0
:102CE000122D15D02568002D00D0A847002070BDFA
:102CF00048780028FAD1FFF78EFFF7E748780028D8
:102D0000F4D1FFF7C5FDF1E74878FFF7C9FDEDE71E
:102D100048784428EAD100F0BDFCE7E7F8B51C4646
:102D200010460E4601F0ACF8022824D1240A00D047
:102D300000BE0C202746474332483D18AC70FF2C9C
:102D400015D00121E9700521322001F0BDF82D4890
:102D50003188C153707A68713146A81D06220A3144
:102D600001F004F8002211462046FFF71CFF31460F
:102D7000204600F078FC0020F8BD70B50C460978BC
:102D800016460A2909D01D4D2D1F2968002902D099
:102D900021462C68A047002070BD104601F070F855
:102DA0000428F8D160780028F5D10521304601F0DB
:102DB0008BF8F0E710B510460C4601F061F80328D7
:102DC00003D0052801D0042802D1204600F05EFC83
:102DD000002010BD10B510460C4601F051F8012836
:102DE00008D12078002805D1FFF714FF002801D072
:102DF000FFF757FD002010BD0020704760470020FE
:102E00000234000080800020FFB583B01E4F0024F4
:102E100001AEA00000963D5803A80FC8A84700289F
:102E20000ED0641C032CF4D3174C241F20680028F8
:102E300003D003AD0FCD2468A047002007B0F0BD3C
:102E400068460079FAE7F8B5089C9C46079D03465A
:102E5000002C16D0641E14D40C4FE600AE5B9E42CC
:102E600001D0BE420BD1E3005B195C68002C08D096
:102E700013466246A047069908700020F8BD641EFC
:102E8000EBD50120F8BD0000AC470020FFFF00009B
:102E900070B51049049C4118052901D3012070BD6B
:102EA00000F00FF80025002807DB0B4A810050587E
:102EB000002803D05550804700E000BE2570002058
:102EC00070BD04494018052801D240B27047002067
:102ED000C0437047F337FFFFA88000207047000011
:102EE00070B51E4A00248318049D002B18D01C4A7C
:102EF000012B06D01949891E41180A2919D301202E
:102F000070BD0978481E092808D88900091F515842
:102F1000144B99421ED1800014501BE000BE19E0F2
:102F20004A8808781049401880B2322101F0DAF856
:102F300010E00A49491E4018C0B2411E092908D8AC
:102F4000800081188039C86F002803D0CC67804783
:102F500000E000BE2C70002070BD0000FF37FFFFB6
:102F6000BC800020DD2E002002C8000070B544485F
:102F70000022016BD243002901D0114600E001215B
:102F8000CB178C0B9B0423438C0401633D490D68D4
:102F90004E682C4333430C604B60436B002B01D0D5
:102FA000144600E00124E317650BDB042B43446364
:102FB0000D68E4044E682C4333430C604B60836A15
:102FC000002B01D0144600E00124E317250C1B045C
:102FD0002B4384620D6824044E682C4333430C60F9
:102FE0004B60C36A002B00D10122C262D017D30B01
:102FF000400418430C6852044B68224318430A608B
:10300000486070BDF8B50325002402232D022A462E
:10301000194601200094FEF784FC01231E0232466B
:10302000032118460094FEF77CFC14232A46002155
:1030300001200094FEF775FC012113233246084657
:103040000094FEF76EFCF8BD10B505242407208A15
:10305000022188432082A08A0007FCD50A484188C3
:10306000FF22013211434180FDF762FEFFF7CAFFE4
:1030700000F03CFC608A20210843608210BD000003
:1030800028900020209000202000005030B4002123
:10309000B148B24A07E003685569641E2B706D1C85
:1030A0005561491C14614369DB07DB0F02D01469C9
:1030B000002CF0D1002907D0002050619369002B2B
:1030C00007D0906130BC1847426801218A430A4307
:1030D000426030BC7047A0484069C007C00F01D0B3
:1030E00000207047012070479B49222008617047EB
:1030F00000B5012202239849002803D008699843AB
:1031000008611AE048694006C00F15D0486980067A
:10311000C00F11D0FFF7DFFF00280DD008699843DA
:103120000861FF2387330220401C9842FCDBFFF735
:10313000D2FF002803D000E00022104600BD22206C
:103140000861F9E7FEB501278548FE0406603946A7
:103150003846FEF70EFC0025804C002818D00121CF
:103160000846FEF706FC00280CD0E169002901D0D2
:10317000002088470095012301950121132208466C
:10318000FEF718FC77480660754880380660FEBD7B
:10319000E169002901D001208847002300970195AB
:1031A000EBE77CB505221207948880231C439480AA
:1031B000694A94899C4394818724148100259580D1
:1031C00094891C4394819580958010809181908989
:1031D00098439081012662495801086062490A6853
:1031E0004023120A12021A430A605D4980390860BE
:1031F0005C4908605D491320FEF76EFC012108461A
:10320000FEF7B7FB554C00281FD001210846FEF7FA
:10321000B0FB00280CD0E169002901D000208847CC
:10322000009501230195012113220846FEF7C2FBF8
:103230004A48203005706561E56125616560267248
:1032400000202560FFF754FF7CBDE169002901D013
:1032500001208847002300960195E4E73F48006875
:1032600070473E4B9A61196158613B4801214268A1
:103270008A430A4342607047384BDA601960364926
:1032800058604868022290431043486070473349B1
:10329000C861704710B5304881680907090F0129D6
:1032A0001FD002291ED0042919D00C2919D12B496D
:1032B00020310978012912D141690906C90F0ED0C0
:1032C000264900220A614A6183885B085B0083808B
:1032D0008B69002B03D08A61002101209847FFF7FA
:1032E000D5FE10BD00F013F810BD00B51A484169B5
:1032F0004906C90F09D040698006C00F05D0FFF705
:10330000EAFE002801D0002000BD012000BD30B43D
:10331000114C114B1148603409E0016800290BD0B1
:10332000426815781D60491E521C06C00838A18BE2
:103330008907C90FF1D1CCE6002242605968022406
:10334000A1435960017A0029F5D0C1680029F2D063
:10335000C26030BC0020084700100050E48000200C
:1033600080E100E080E200E00CE400E04531002074
:1033700010B51021264800F057FF2649362000F0EE
:1033800059FF0021362000F09FFD10BD70B5204D83
:1033900006462988042336221F4800F037FE0446DB
:1033A000287900F02FFF2080A670204600F040FE14
:1033B00070BDF8B50746081D83B2154E16480D4678
:1033C00031883622401C00F021FE0446307900F09E
:1033D00019FF208065802A463946201D00F0C6FC72
:1033E000204600F025FEF8BD70B50646084D0A4897
:1033F000298804233622C01C00F008FE04462879E0
:1034000000F000FF2080A670204600F011FE70BD85
:1034100008810020D048002005D800007CB58B4EE4
:10342000362171801D468A49334600920191083346
:103430000D220021B01DFFF743F9040007D1F088E9
:10344000002100F0FDFE0121362000F03DFD0423A7
:10345000362229467F4800F0D9FD847000F0E8FD4F
:1034600000207CBD70B51E460D46088800F0EEFEBB
:10347000764CFF282071268018D0A978E08800F0CB
:10348000DFFE0221362000F01FFD0120E0722073D4
:103490000020A073E0736F48218801233622801C2E
:1034A00000F0B4FD00F0C4FD002070BD694B89211F
:1034B0005B1CDA1D6548FFF78FF9F5E710B5634827
:1034C0000021C08800F0BCFE0121362000F0FCFC89
:1034D000002010BD10B50878122811D15B48827BFE
:1034E000002A00D100BE521E1206120E827307D1AE
:1034F000C27B002A04D00022C2734878FFF746FF3F
:10350000002010BD70B5514C4B88E0880A1D801C0E
:1035100080B2194600F06AFEE07A012500280BD03F
:10352000E0880021801C82B22046FFF76BF9E5732A
:10353000A07B401CA07300E06573002070BD70B5D7
:10354000424C0D46E0888A1C0A3080B2012100F00E
:103550004DFEE08800210A3082B22046FFF752F982
:10356000A07B401CA073A878012800D00020207305
:10357000002070BDF8B5354C0D46E288098820461C
:10358000D31C007999420BD0931D994205D128464E
:1035900069880830FFF70DFF52E0D31D994206D12C
:1035A000AA79012A4CD1002200F056FE48E01346C9
:1035B0000A33994220D1287A0025012802D0022816
:1035C00015D03DE00126E6723046FFF70DFF607B27
:1035D00000280AD0E0880021801C82B21B48FFF737
:1035E00011F9E673A07B401CA073657328E0E572B7
:1035F0000220FFF7F9FE23E00B32914220D1687AD6
:10360000297A0002084318D0012816D1207B00280F
:1036100001D0012000E002206946087098B26A4695
:10362000012100F0E3FDE08800210A3082B2074862
:10363000FFF7E8F8A07B401CA073A879012801D00F
:103640000020F8BD29882079ADE70000088100201E
:103650000048002001D800007CB5194C01AD246859
:103660000095A0477CBD10B50446FFF7FEF8210287
:103670000123322213480C3100F0C8FC01210170F3
:1036800000F0D6FC2046FFF7ADFA10BD10B5FFF7ED
:10369000FBF810BD00BE704710B500F05AF8FFF7F8
:1036A000DDF810BD10B500F090F90021012000F008
:1036B000CDF8002010BD10B500F060F910BD00007D
:1036C000384900200130000038B50022009200285F
:1036D00008D002281CD000BEC54A10210098FFF770
:1036E000C0FD38BD6C4689B2C24800F0F0FA102225
:1036F0002146C04800F0B4FA102800D000BEBD48F2
:1037000000F00DFB0028E7D00120FFF7F1FCE3E714
:1037100010226946B74800F0A3FA1028DCD000BE9A
:10372000DAE710B5002809D0B248203800F0E7FAEF
:10373000002802D0012000F09DF910BDAD4C203CC6
:10374000207F0028F9D1022000F094F90120207791
:1037500010BD10B5A74800F0FBF9002816D1A54808
:10376000203800F0F5F9002810D1A34AA148E12142
:10377000A14BC83AC900203800F0CEF9FF23FF2141
:103780005F339622F5319B4800F0C6F99B48FFF75E
:103790007EFD03210920FFF704FD00210220FFF731
:1037A00093FFFFF7A1FC10BDF8B50026944C0096DE
:1037B00000280AD0022820D000BE2178002924D079
:1037C000904A0098FFF758FDF8BD8A486D46217869
:1037D000203800F02AFA874810222946203800F0C5
:1037E00005FAC5B28348203800F089FA002802D0D3
:1037F000012000F03FF92570DFE77E48102269467E
:10380000203800F0F3F92070D7E77A4824380670A2
:10381000F8BD0A460146774810B5203800F0ACF9EB
:103820007448203800F07BFA002802D0022000F013
:1038300021F972B66F4824380178002904D101219A
:1038400001700220FFF7B0FF62B610BDF8B5012687
:1038500000256B4C002825D0607800283ED16548B3
:1038600000F07FF90004000CA08037D04A2804D86B
:10387000A1784A1CA2700A2930D30095A570667001
:10388000802800D98020A08014281FD2A080802208
:103890006946584800F0AAF9A0800146009800F057
:1038A000D3F81BE06570002903D0A188514800F0CF
:1038B000BCF9504800F055F980B2A0804A280DD9D3
:1038C0000095A5706670802800D980201B211438CF
:1038D00000F0C8FC1B2148431430D7E7454800F0EE
:1038E0000EFA002801D0FFF7FFFBF8BD10B54348E2
:1038F000FFF7CDFC3F4800F02BF9002807D003214B
:103900000920FFF74EFC00210220FFF7DDFE10BD6D
:10391000F8B53D4D0024686D0090FCF7F9FF3B4E73
:10392000002802D13079022801D100200090FDF753
:10393000D4F8002820D100F035FC00281CD0012448
:1039400005200007808AC00715D100F021FA002861
:1039500012D12F488069002801D0686D0090B1789D
:10396000684600F025FC002806D0B178684600F0D3
:1039700009FA002800D004242046F8BD1D4810B5DF
:10398000203800F0EEF800281CD11A4800F0E9F8C1
:10399000002817D1FFF762FC002813D1FFF7A5FC20
:1039A00000280FD1FFF7B4FF04280BD10020FFF748
:1039B0009FFB002806D00F49012024394870FCF7EE
:1039C00074FF10BDFCF764FF10BD10B5094C243C1A
:1039D0006078002808D00748007F002805D0012023
:1039E000FFF786FB0020607010BDFFF77DFBF9E755
:1039F000C93600203C8100205203000023370020FC
:103A0000E0900020A937002060020020C6060800D0
:103A1000A805080010B5362104233222880200F0E0
:103A2000F5FA0021418000F003FB10BD10B50446FB
:103A3000042332223621164800F0E8FA04800121DE
:103A4000817000F0F5FA10BD70B50646081D83B20E
:103A50000F480C4632223621801C00F0D7FA05466A
:103A6000448022463146001D00F080F9284600F0CF
:103A7000DFFA70BD10B50446054804233222362112
:103A8000401D00F0C3FA847000F0D2FA10BD0000AF
:103A900002D80000FEB51C46089B06261D4D6F4649
:103AA00068C713462246FFF7CEF9FEBD10B5104693
:103AB0000C4600F0E5F9012809D132220123114614
:103AC000900200F0A3FAA178017000F0B1FA002092
:103AD00010BD10B500210846FFF7B8FE002010BD4C
:103AE00010B58878002805D000210020FFF7AEFE31
:103AF000002010BD0121F8E710B508464988001DD7
:103B0000FFF787FE002010BD0020704700BE002098
:103B1000704700003C490020F8B504460D46481C9B
:103B2000002103C4656021601E4617460321083C3E
:103B300000F09EFB206100202077AE4206DAB742FB
:103B400004DC002F02DD6761A661F8BD00BEF8BD90
:103B5000002804D00069002801D00120704700200F
:103B60007047426881688A4204DDC068801A401844
:103B7000401C7047881A7047F7B504460026EFF3DB
:103B80001080012181F31088A5686168002800D0A9
:103B9000012080F31088A94206DD481B401E8242A6
:103BA00000DC104687B20DE02068431B5918491EFF
:103BB0008A4200DC11468FB2E919814200DD0E1AFB
:103BC000401EE0602069BA1B4019019900F0CEF850
:103BD00001983246C019811B206900F0C7F821689E
:103BE000E819814200DC401AA060FEBD30B5EFF359
:103BF0001085012383F3108844688368A34201DBA6
:103C00001B1B02E0C3681B1B5B1C9A4200DD1A46AB
:103C1000006992B200190860002D04D0012080F3E1
:103C20001088104630BD0020F9E710B5EFF3108280
:103C3000012383F31088436859184160C3685C1CF2
:103C4000A14205DB8468A14202DDC91A491E416018
:103C5000002A03D0012080F3108810BD0020FAE76D
:103C6000F0B5EFF31086012383F310880027002AB4
:103C700009D085684468AC4208DD0069631B4019BF
:103C80005B1E086012E000200F60F0BD03685B1B44
:103C90005B1E9A4214DD002C06D0631E04690C6082
:103CA0008168491EC16001E000230F609A4200DD77
:103CB0001A46D0B2002E08D0012181F31088F0BD41
:103CC000046964190C600168EBE70021F5E710B5A1
:103CD000EFF31082012383F3108883685918816001
:103CE000C3685C1CA14202DBC91A491E8160002A1C
:103CF00003D0012080F3108810BD0020FAE700B542
:103D00000346FFF72EFF5969884202DC187F01281D
:103D100001D0002000BD00201877012000BD00B5B3
:103D20000346FFF71EFF9969884202DD187F0028CD
:103D300001D0002000BD0120187700BD064C0125F0
:103D4000064E05E0E36807CC2B430C3C9847103443
:103D5000B442F7D3FCF778FB9C490020CC49002003
:103D600003B40148019001BD773B030003B401484F
:103D7000019001BD213B030003B40148019001BD46
:103D8000D729030003B40148019001BD2B6902004B
:103D900003B40148019001BDC12D030003B40148E3
:103DA000019001BD0921030003B40148019001BD48
:103DB000C92D030003B40148019001BDEB3103009C
:103DC00003B40148019001BD3D32030003B4014832
:103DD000019001BDD721030003B40148019001BD4A
:103DE0002F2F030003B40148019001BD998F0200F9
:103DF00003B40148019001BD938F020003B4014850
:103E0000019001BDCD8C020003B40148019001BDB9
:103E1000418F020003B40148019001BD27680200F0
:103E200003B40148019001BD3968020003B40148A0
:103E3000019001BDB780020003B40148019001BDAB
:103E40000F3B030003B40148019001BD551B020064
:103E500003B40148019001BDCF2B030003B4014816
:103E6000019001BDCB2C030003B40148019001BDBA
:103E70000990020003B40148019001BD831D0200B6
:103E800003B40148019001BDB326030003B4014807
:103E9000019001BDFD3D030003B40148019001BD47
:103EA000197D020003B40148019001BD0522020002
:103EB00003B40148019001BDA528030003B40148E3
:103EC000019001BDD5AF020003B40148019001BDCE
:103ED0003126030003B40148019001BDA1A50200F1
:103EE00003B40148019001BDE3A5020003B40148F9
:103EF000019001BD87A8020003B40148019001BDF3
:103F0000A7A9020003B40148019001BD93AA0200D1
:103F100003B40148019001BD95AB020003B4014810
:103F2000019001BDF9AB020003B40148019001BD4D
:103F300069AC020003B40148019001BD17AD020055
:103F400003B40148019001BD77AD020003B40148FC
:103F5000019001BDF1AD020003B40148019001BD23
:103F600085AE020003B40148019001BD11AF02000B
:103F700003B40148019001BD3350020003B401486D
:103F8000019001BDA73A030003B40148019001BDAF
:103F90005548020003B40148019001BD1F500200C2
:103FA00003B40148019001BD7F0C030003B4014834
:103FB000019001BDAB0C030003B40148019001BDA9
:103FC000BF22020003B40148019001BDEB260300AB
:103FD00003B40148019001BD3524030003B4014836
:103FE000019001BD2F22020003B40148019001BDE0
:103FF000DD20030003B40148019001BD533B0300E1
:1040000003B40148019001BD9D20030003B40148A1
:10401000019001BDB123030003B40148019001BD2B
:1040200049E5020003B40148019001BDF9E3020033
:1040300003B40148019001BDE123030003B401482A
:10404000019001BD4BCD020003B40148019001BDB8
:1040500099D1020003B40148019001BDABD0020028
:1040600003B40148019001BD69D0020003B40148C6
:10407000019001BD77CF020003B40148019001BD5A
:1040800001CC020003B40148019001BD29CC02001B
:1040900003B40148019001BD15D2020003B40148E8
:1040A000019001BD8DD2020003B40148019001BD11
:1040B000B938020003B40148019001BDBB7F020082
:1040C00003B40148019001BD7758020003B40148D0
:1040D000019001BDD722030003B40148019001BD46
:1040E0002D42020003B40148019001BD25280300C0
:1040F00003B40148019001BD7B30020003B40148C4
:10410000019001BDCD2B020003B40148019001BD17
:104110008D3D030003B40148019001BDF38E020000
:1041200003B40148019001BD218E020003B401488F
:10413000019001BD652C030003B40148019001BD4D
:10414000DB2E030003B40148019001BD231D0200D2
:1041500003B40148019001BDC32C030003B401481E
:10416000019001BD1531030003B40148019001BD68
:104170003B66020003B40148019001BD2B660200BA
:1041800003B40148019001BD038D020003B401484E
:10419000019001BDCF8F020003B40148019001BD21
:1041A0001B66020003B40148019001BD79200300A1
:1041B00003B40148019001BD2129030003B4014863
:1041C000019001BDC768020003B40148019001BD20
:1041D0000D2C030003B40148019001BD9598020025
:1041E00003B40148019001BD9599020003B4014850
:1041F000019001BD6D9B020003B40148019001BD17
:10420000739B020003B40148019001BDE3E3020087
:1042100003B40148019001BD95E3020003B40148D5
:10422000019001BDD129030003B40148019001BDF3
:10423000533B030003B40148019001BD87250300EF
:1042400003B40148019001BD7B9C020003B4014806
:10425000019001BDB7E3020003B40148019001BD24
:10426000F3AF020003B40148019001BDD33A03004B
:1042700003B40148019001BD1522030002E008C803
:10428000121F08C1002AFAD170477047002001E0D0
:1042900001C1121F002AFBD17047000010B5002891
:1042A00023D0124B0022001F196803E0814203D87B
:1042B0000A4649680029F9D1002A0AD01368841AED
:1042C0009C4204D1006818181060104602E050604B
:1042D00000E01860002907D002680B1A934203D14E
:1042E0000B68D21802604968416010BD0C4A00207A
:1042F000F0B50B30C108C900144F0026144A0FE076
:1043000003688B420BD38B4205D95C1A431845686E
:1043100030C3083B00E04368136002C004E0021DA4
:1043200010680028ECD13046002803D138680028F6
:1043300001D00020F0BD064A06481060064A121A55
:10434000D208D20044C001203860D7E7104A0020CC
:104350000C4A0020EC900020E89100200101000AA6
:1043600004280A040203AA0055032A00A001FFFF43
:104370002C0100000A000000857502000B000000FF
:104380006B7A02000C000000CB7902000D000000E7
:10439000A17502000E000000D37502000F0000009E
:1043A000F379020010000000FD7502001200000009
:1043B00017760200110000005D7602001300000075
:1043C0008776020014000000B1760200150000009C
:1043D000D778020016000000097902001B000000D7
:1043E000F77602004D000000577902001700000028
:1043F000217A020018000000137802001900000062
:10440000537802001A000000957802001C0000009A
:104410008D7A02001D000000AD7A02001E0000002F
:10442000437A02001F0000007377020020000000A2
:10443000C377020021000000F37A02004900000067
:10444000317B020000080000650C00200100000024
:104450003B7B020009000000537B020005000000C6
:104460007D7B020006000000A77B02000200000026
:104470000B7C020007000000CF7B02000000000060
:10448000F97B0200030000006B7C020004000000C6
:104490008D7C020008000000F77C02004C00000048
:1044A0006D7E020074430020260000005443030088
:1044B000A44400203204080006000100030D00207F
:1044C000DD0D00203F120020FD12002021130020EE
:1044D000C5110020000000008D0F00200504000021
:1044E000351500200604000093390200070400007F
:1044F000D9390200080400001F3A0200020400003B
:10450000B73B020000040000093C02000404000064
:104510006F3C020003040000D93C020001040000CB
:104520004B3D020009040000D73A02000A040000D3
:10453000413B02000B0400004D3F0200210400003B
:104540009942020026040000131600200008000013
:10455000EF3F02003F000000CF4102004B0000008F
:10456000C93D02004E000000213E0200230400006D
:104570007F3E020024040000B93E02002704000030
:104580009B43020028040000C543020025040000EC
:104590003D4302002B040000F143020031040000FF
:1045A00011440200320400005944020035040000A6
:1045B0008D44020029040000531500202A04000045
:1045C0002D1700202C0400006D4502002D04000072
:1045D000F74502002E0400002B4602002F040000C5
:1045E000FD1600203304000093460200340400004E
:1045F0001547020036040000454702003004000061
:1046000097470200010800002D4202000108000047
:10461000A915002000080000EF3F02000000000084
:10462000000000000000000000000000000000008A
:10463000000000000000000000000000000000007A
:10464000000000000000000000000000000000006A
:10465000000000000000000000000000000000005A
:10466000000000000000000000000000000000004A
:10467000000000000000000000000000000000003A
:10468000000000000000000000000000000000002A
:10469000000000000000000000000000000000001A
:1046A000000000000000000000000000000000000A
:1046B0000000000000000000000000000C46002088
:1046C000020000000000000000000000DC440020A8
:1046D000260000001C460020CC4600206403080091
:1046E00016000600FF003F00FF03FF01000000006E
:1046F000010203040506A000A00007010001020357
:10470000040506000A000000000000000000000090
:1047100000000000000000000000A00008001000E1
:10472000000064000000000036000000153A002080
:104730002D3A0020FF0000000000000000000000F3
:10474000FF0000000000000000000000000000006A
:10475000A0470020A080002006000100593600205C
:1047600001340000952C002000340000B92C0020FA
:10477000003800007B2D0020013800001D2D002096
:1047800003380000B52D002000C80000D52D002002
:1047900010340000F92D0020FFFF0000092E00203A
:1047A0009847002001000000593600207D2C002091
:1047B000E12E0020912E0020B75C49D204A3407165
:1047C000A0B535853EB08307B85C49D204A34071DB
:1047D000A0B535853EB08307BA5C49D204A34071C9
:1047E000A0B535853EB08307B95C49D204A34071BA
:1047F000A0B535853EB0830700280328022901298A
:10480000F84700200200010010001000B847002007
:10481000FA4700200200010013001300D0490020D5
:10482000C847002010000002A000000000000000A7
:10483000FC47002002000900020000000000000008
:10484000FE470020020001000E000E007C490020FF
:10485000FA4700200200010013001300E349002082
:10486000D847002010000800A00000000000000051
:10487000FC470020020009000200000000000000C8
:10488000FE470020020001000E000E006C490020CF
:10489000FA4700200200010013001300F64900202F
:1048A000E84700201000090201000000000000009D
:1048B000FC47002002000900020000000000000088
:1048C000FE470020020001000C000C008C49002073
:1048D000184900203049002000800020030001001A
:1048E00000D800001D34002002D8000065340020EC
:1048F00003380000BD34002000300000D534002013
:104900000E3000007535002004D800000535002069
:1049100007D800003F350020E048002001000000DB
:10492000E848002001000000F048002005000000D9
:104930000000000000000000953A002001D80000AF
:10494000AD3A002003D80000D33A002005D800007B
:10495000E13A002006D80000F93A002008D800000B
:10496000093B002009D800000D3B002053657276FA
:10497000657220525820446174610000536572765C
:10498000657220545820446174610000466C6F7752
:1049900020436F6E74726F6C00000000144A002098
:1049A000008000205C0100008C420020144A00209E
:1049B00020900020C80100008C42002068070800F9
:1049C000202A0800E00500008C420020800C000036
:1049D000100000B85C49D204A34071A0B535853EF3
:1049E000B08307040000BA5C49D204A34071A0B5AB
:1049F00035853EB08307160000B95C49D204A34058
:104A000071A0B535853EB0830700000000000000AE
:044A100000000000A2
:040000052000044192
:00000001FF
