:020000042000DA
:1000000000980020A5040020AD040020C5040020B5
:1000100000000000000000000000000000000000E0
:10002000000000000000000000000000DD040020CF
:100030000000000000000000F5040020591E002010
:10004000912300207F2400200D3103006D24002027
:10005000F92300208D310300912400209F240020EB
:10006000F9040020F9040020DF240020AD31030052
:100070007D350020AF1E0020F9040020F904002087
:10008000F9040020F9040020F9040020111A0020CE
:10009000151A0020191A00201D1A0020211A00200C
:020000042000DA
:1001600032000000C50600207F200020632A002006
:10017000000000000000000063800200BD8002005B
:10018000D90A0020FB80020019810200358102009B
:100190005D81020031220020810B0020C50A002071
:1001A000CF0A002000000000000000003F00000017
:1001B000F487002000080000680D0800900200008D
:1001C00068070800F405000004100800000800009B
:1001D000000000002000000048000000580000005F
:1001E0006800000004010000160100002801000062
:1001F0002E010000202A00008E2E000001000000C9
:100200008813000009210020E9600200FD9302002C
:10021000EB11002019280300A57402000D06002030
:1002200003000000D52002006B2A0020040000001B
:10023000D74902000F4902004D0C002063910200D3
:10024000B7910200BF910200078202007182020092
:100250000A480020AD830200938402004185020019
:1002600015860200378602005F860200758602004E
:10027000F9870200258902005D8A0200D38C020002
:10028000098D02000F900200438D0200278E0200AC
:10029000F98E0200478F02003B0A0020D58F020032
:1002A00049510200775102002F5202001000000055
:1002B00020030000803E000000000000000000005D
:020000042000DA
:1002C000504600030003983A6400F401B80B000C98
:1002D000B80B120030003000CD009A01120024004B
:1002E00030006400B0001800280012001200D0078F
:1002F0000000FFFF00000000000000000000000000
:100300001F000002444131343538302D30310000B7
:1003100000000000000000000000000000000000DD
:0403200000000000D9
:020000042000DA
:10034000FFFF010000C201000000000000000000EB
:100350000000F40101000112000A1107B75C49D244
:1003600004A34071A0B535853EB0830700000000AE
:10037000000000000000000000000000000000007D
:10038000000000000000000000000000000000006D
:10039000000000000000000000004449414C4F47AD
:1003A0002D5350530000000000000000000000002A
:1003B000000000000000000000000000000000003D
:1003C000000000000000000000000000000000002D
:1003D0000000000000000000000000CAEA80D00712
:0403E000064064323D
:020000042000DA
:100440000348854603F044FF00480047C7200200E8
:10045000009800200F4906200880FF200E49013037
:1004600008600E4988683E2290432E308860002242
:10047000052000070280018A0F231B021943018215
:1004800001210748C90404C1401E0028FBDA62B6F6
:10049000704700000034005080E100E0003300505D
:1004A000FF0B00001548804715480047042071469F
:1004B000084203D0EFF3098012490847EFF30880A0
:1004C0001049084704207146084203D0EFF3098021
:1004D0000D490847EFF308800B490847042071468F
:1004E000084203D0EFF3098008490847EFF308807A
:1004F00006490847FEE7FEE7FEE700005504002036
:10050000410400207105002011050020650D002028
:1005100005221207518A8023194351821249036828
:100520000B6043684B6083688B60C368CB60036972
:100530000B6143694B6183698B61C369CB6108625D
:100540000A48836A4B62C36A8B62036BCB62C36BDC
:100550000B63436B4B63806B8863908A800601D585
:1005600000BE7047FEE700000018080000ED00E044
:10057000052109070A8A04231A430A820A8A0223E8
:100580001A430A820A8940231A430A811B4B01221B
:100590001A601B4B08221A804A8A80231A434A8217
:1005A000184A036813614368536183689361C368A1
:1005B000D361036913624369536283699362C369B8
:1005C000D36210631048836A5363C36A9363036BF7
:1005D000D363C36B0B4A40321360436B5360806B31
:1005E0009060888A800608D500BE488A012280086B
:1005F0008000D203104348827047FEE780E200E0AB
:10060000003300504018080000ED00E070B51646B9
:100610000C460546012802D00C2D26D10DE00622FD
:100620002149224803F066FE00281ED006221F49F9
:10063000304603F065FE062012E01D4D296808785B
:10064000C00610D52078202803D200202070042076
:1006500070BD0A7E30463A3103F052FE2868007EB3
:100660002070002070BD012070BD32462146284612
:1006700003F04CFE70BD70B50E480F49C4052288CA
:1006800080252A4322800D4A53891B0701D4401E2E
:10069000FAD20B4A012010600622044803F030FE13
:1006A0002088A843208070BD383E030000800020D1
:1006B000C0060800A0860100D47F0400200000507E
:1006C0000080004008B500F068FA002405252D07D9
:1006D00009E004216846009403F01EFE002816D0AD
:1006E00000F0B9F913E02889000610D50120800731
:1006F000006B00040BD403F015FEC00707D10420E3
:1007000003F016FE064603F019FE002EE1D103F0B9
:1007100096FA0028E7D172B603F09AFA01F032FF98
:10072000042806D002280BD0032809D0012810D0B5
:1007300010E04E480078012801D0032000E002209C
:1007400000F00AF830BF4A48016904229143016170
:1007500000E030BF62B6C6E7F8B504466846052536
:1007600004702D07288A0421084328824148424FFB
:10077000C0690126012811D9032C18D103F0E4FD2A
:10078000002814D003F0E6FD002810D0032003F069
:10079000E7FD00280BD00220387009E0032C06D1B9
:1007A000032003F0DDFD002801D03E7000E00224AC
:1007B00068460470204600F023F800202F49022CE0
:1007C000087001D0032C1AD12D494A88FF23013328
:1007D0009A434A806A882B4B1A804A8832434A805F
:1007E00000900099491C00911429FADB6989890855
:1007F0008900491C698169894906FCD56880F8BD72
:1008000010B5022801D0032828D119490B69042208
:1008100013430B61052109074B8A2024A3434B8214
:100820000B8A022423430B8210230228488A16D005
:10083000104348827F220888920180242043088048
:100840000020401CC0B20A28FBD3488A18434882C3
:100850000D48521E42610888A043088010BD104315
:100860004882488A9843488210BD0000540208001C
:1008700000ED00E0E0010020C406080058800020E0
:10088000200000505A800020008000407047000087
:100890002C480178002902D08021417070472A49F4
:1008A000002008702949C87070472648017800293F
:1008B00002D08121417070472349012008702349EB
:1008C000C87070471F480178002902D0822141700A
:1008D000704700BE1C49022008701C490120C870E6
:1008E0007047002804D0012803D0022802D1E9E78C
:1008F000CEE7DAE77047144900200978002904D0D0
:10090000012903D0022900D102207047012070473D
:100910000C48C07870470020EFF31081012282F369
:100920001088052212071289120605D40848028988
:1009300001231A4302811846002900D0012181F3C6
:10094000108870470780002054020800C60608007F
:100950000033005070B50520000701893022914313
:10096000018101898022114301810189890889005F
:10097000491C01810189082319430181BB490C8865
:1009800014430C80448A9C434482058940242543B7
:100990000581058A0426B5430582858AAD07FCD505
:1009A000B34E002575600E8801252E430E804D89BB
:1009B000AE05B04D0E8801D52E4300E0AE430E804B
:1009C0000D887826B54328350D800D8806263543D9
:1009D0000D80458A1D4345820B8893430B80028915
:1009E000A24302814889800503D5A04905206031D2
:1009F00088800120800701688215914301609E482C
:100A000001683F2252029143421489180160016833
:100A100002031143016070BD0321984809028181DE
:100A2000082242800021491C9629FCD3828070470D
:100A300010B5934803F09AFC10BD70B58B4C6088DC
:100A4000C006050F03F098FC61881E2291436A00DE
:100A50001143618070BD70B58A490120C863C86BBD
:100A60000028FCD101208007C16987480022036863
:100A7000994200D202607E4C01266378834D002BA0
:100A800004D06270016003F07DFC11E0026819235C
:100A90008A1ADB019A4214D3016003F073FC29889F
:100AA000884201D9411A00E0091A89B2182908D3ED
:100AB0002880012003F06CFC03F070FC002800D1BA
:100AC000667070BD08B503F06FFC009008BD08B5F6
:100AD00003F070FC009008BD08B56D4901204A691B
:100AE0005206D20F13D04A699206D20F0FD00022BD
:100AF0000A610092FF225F32009B5B1C00939342CD
:100B0000FAD34969C907C90F02D003F059FC002084
:100B100008BD1FB5684601F024F9009803F056FCA3
:100B20001FBD10B55B4A0020117800290DD0554932
:100B30000120C863C86B0028FCD101208007C06970
:100B400055490968884201D2012010BD002010706B
:100B5000FFF7D1FE022803D0FFF7CDFE01280BD10D
:100B60004E490820088005200007818A8906FCD4A8
:100B7000418A802291434182002010BD00207047AD
:100B800010B5474900200860FFF752FF0120800799
:100B9000016B49004908016310BD10B53D490120B2
:100BA00008703E490820088003F016FC00F03CFE67
:100BB000FF2401340D202146800103F013FCFFF7D0
:100BC0005AFD02F0B5FB012003F000FC01F0BAF978
:100BD000FFF7C0FE042000F041F8072000F03EF8C7
:100BE0000A2000F03BF8062000F038F80B2000F057
:100BF00035F8012000F032F8022000F02FF8002034
:100C000000F02CF82748006803F0F2FB00F08DF8A4
:100C100000F0D6FDA005016821430160FFF779FFD0
:100C20000024FFF735FE02F0B8F803F002F8FFF7F2
:100C3000A7FF05200007C4820C494888E0229043A2
:100C4000A0304880012003F0D9FB10BD164910B533
:100C5000884200D000BE03F0D7FB10BDC106C90E0C
:100C600001208840114908607047000020000050B2
:100C70000C800020001000000002004020300050D6
:100C8000E2040000C00000407C0408007804080072
:100C900000100050068000207C4D002000330050E2
:100CA0008C030800049000201111111180E200E073
:100CB000FFB581B01F460E464D780C78002003F03A
:100CC000A9FB042824D000281DD121E04148816ED1
:100CD0002E206043091888880207120F130003F0C2
:100CE0009FFB070505050F050F050F008204920EF7
:100CF000062A05D27278012A12D007221043888072
:100D0000641C6407640F28466D1EEDB20028DDD117
:100D10003B463146039A019803F088FB05B0F0BDCD
:100D2000204603F089FB0020F8E770B52A480378D5
:100D3000021D0021294D07E0CC00165D002E01D1D7
:100D40002418A560491CC9B29942F5D370BD028927
:100D500008892349101A80B2884201D901207047BE
:100D60000020704781692039897F082905D21B4AF4
:100D700089001032515881617047FEE71A481949BD
:100D800001611A4941611A4981611A49C1611A49CF
:100D900001621A4941621A4981621A49C1621A49BB
:100DA00001631A4941631A4981631A49C1630E48B4
:100DB0001949403081601949C16001201849C006B5
:100DC00008601849CA691202120ACA6114498039B6
:100DD00008607047D802080004060800584900203F
:100DE00030750000942703000084004062B600DFE5
:100DF00028A30200704701DF1CCA0200F8BD02DF11
:100E000040CB0200F5E703DF84D4020004DF89B0A1
:100E1000941B030005DF00B5EC0C030070BD07DF79
:100E200080E100E000ED00E070B516460D4610468A
:100E300003F0F0FA002869D0340A304603F0EAFAE9
:100E4000012812D0A87A1E2811D029460A310E286E
:100E500045D019DC801E030003F0E2FA0B25582967
:100E6000582D58315839583D5800022070BD314630
:100E7000274803F0E7FA0021204603F0E9FA0221AF
:100E8000304603F0EBFA41E018283CD006DC10288D
:100E900019D012282BD0162838D130E0522822D071
:100EA000D22833D127E0204603F0DEFA2EE0204698
:100EB00003F0E0FA2AE0204603F0E2FA26E02046BA
:100EC00003F0E4FA22E0204603F0E6FA1EE02046B2
:100ED00003F0E8FA1AE0204603F0EAFA16E02046AA
:100EE00003F0ECFA12E0204603F0EEFA0EE02046A2
:100EF00003F0F0FA0AE0204603F0F2FA06E020469A
:100F000003F0F4FA02E0204603F0F6FA002070BD88
:100F100001280000F8B50D46064681002B48EA88F6
:100F20004458521C20686B89018F294F514300910E
:100F3000014640314A89C989511A8AB2991A89B23F
:100F4000B94214D29A4212D0294603F0DBFA2D8915
:100F50002049009803F0DCFA2818801C4034E08215
:100F60003002401C80B2042103F078FAF8BD282139
:100F7000304603F0D3FAF8BDF8B5054687001348AC
:100F80000C46C059C9880068114E02464032538948
:100F9000D2899A1A92B28B1A9BB2B34211D20B4EDB
:100FA0008A420ED003F0C0FAF05905225F30611C6E
:100FB00003F0A6F92802401C80B2052103F04EFA86
:100FC000F8BD2821284603F0A9FAF8BD4C03080013
:100FD000FF7F00001027000070B504460078002550
:100FE0000D2801D00A2200E002225A494B7A002B38
:100FF00006D00D2804D0637C032B01D0432551E09B
:10100000097A8A4339D10D2809D00E2802D00F2839
:1010100003D134E0607C032804D3402542E0607CA7
:101020000328FAD8A07C0428F7D20A2908D0607CCB
:10103000012822D0022820D06078032809D811E0A6
:1010400003F078FA012806D16078032803D000283D
:1010500001D0492526E003F06DFA002802D160781E
:101060000228F6D83020035D22462046E17C31324A
:10107000143000F019F8054614E0422512E003F0A0
:1010800059FA012807D16078052804D1A01D03F082
:1010900057FA0028DDD003F04DFA002802D160781D
:1010A0000228D6D8284670BDFFB5002086B00121A1
:1010B0006A461170044605910021002C06D0089D57
:1010C000099A1F239A4234D9402032E01C23069DFE
:1010D000079AF7E76B185E78330003F0A1F91D2635
:1010E0001010101010101010102626262626262666
:1010F0002626262626261010101010102600059BE6
:1011000003E06F46FF5CB74204D05B1E5BB2002B6E
:10111000F7DA03E0002B01DB4A2006E0059B6F466F
:10112000FE54059B5B1CDBB205936B5C491C591894
:10113000C9B2914201D20028CCD0914202D04A20BB
:101140000AB0F0BD641CE4B2022CF9D20028B3D07E
:10115000F6E700009805080070B5EFF31085012050
:1011600080F31088264803F0F1F90446002D1DD0C5
:10117000012080F31088002C23D020462038C08B1B
:10118000204988421DD16189208903F0E5F90500D5
:101190000ED021461031A38962892089A8470028F2
:1011A00006D001280DD002280BD105E00020E0E791
:1011B000204603F0D7F904E0114821460C3003F033
:1011C000D7F9EFF31084012080F310880C480068F1
:1011D000002802D1012003F0D1F9002C03D0012016
:1011E00080F3108870BD0020FAE710B5BC210648D6
:1011F00003F0CAF90549012003F0CCF910BD000045
:10120000A8050800388300000406080059110020D2
:1012100000B502790021130003F002F90C3407072E
:10122000353520353535353527344279042A27D8E8
:10123000C279530707D05207520F012A03D0042A5C
:1012400001D0052A1CD18279002A01D0012A17D1A8
:10125000007AC01F0A2816D3062114E04279521ED4
:101260000A2A10D3082242710DE0407942070AD0C1
:101270004007400F012806D0042804D0052802D0DA
:101280000A2100E00721084600BDF3B581B00198AE
:101290000C460102CA1D022332480E3103F080F9C8
:1012A00004700199054602272F488E00002C06D0B5
:1012B000042C16D0062C10D0072C3FD108E0815901
:1012C00005224968897C114069708059C77335E0EF
:1012D000084603F06BF9687030E080590F21C17344
:1012E0002CE0044680594068417C012902D1007EEF
:1012F00001280FD0019803F05FF901210028A059BF
:101300000BD04268D07D00281CD001281AD00428B8
:101310000DD00FE0002068700DE04068C27D022A09
:1013200001D0042A06D1007C02280BD102E0107CF7
:10133000022807D06F70A1590320C873284603F014
:1013400041F9FEBD6970F6E701460A780120042ADA
:1013500001D90020704749780029FBD00129F8D134
:1013600070470000021C000028050800FFB589B086
:101370000D4600206946059008720B98000A0090FF
:1013800003F01AF907460B9803F044F800287DD0C3
:101390000B982978000A8400784E012963D004292B
:1013A00004D0062948D0072968D125E03059C17BEF
:1013B000032901D0042961D1697800291AD0406835
:1013C0001022A91C02F09CFF002F06D03159C87BC7
:1013D000032807D0042808D050E03059C07B0328E8
:1013E00003D04BE00B20C87348E00521009803F0C0
:1013F000EFF843E00120B6E03059C07B0E283DD124
:10140000009803F0D3F8002103E02A18401C9170E3
:10141000C0B21028F9D3688A69460883294606A80D
:1014200008221431023002F06BFF06ABAA1C3946C9
:10143000009803F0D3F821E03059C07B0F281DD16C
:10144000AA1C0A21009803F0CFF8002F04D03946D7
:10145000009803F0CFF811E000231A4639460098AF
:1014600003F0CEF80AE0012F08D10B9802F0D2FF6A
:1014700001281CD0002801D0022005906846007A7F
:10148000002811D002AA0521009800E00CE003F02A
:10149000ABF86846027A6020024368460272012374
:1014A0003946009803F0ACF805980DB0F0BD3059FE
:1014B000C07B0228E2D16878002851D002210B9825
:1014C00002F0CCFF305907224068A91C173002F007
:1014D00017FFE878002804D130594068407C012883
:1014E0003AD0009803F092F8002837D0297A009873
:1014F00003F092F8002833D0009803F093F801210C
:10150000009803F095F800282CD030594068417EAF
:1015100000292BD0042929D0C17E027D1140C1763B
:1015200030594068017F427D114001776846007A5A
:101530000028A7D13059022142680098173203F0E1
:1015400053F8305941684031897B002913D0042178
:101550000098FFF79AFE91E7022004E0062002E0DF
:10156000082000E00320694608728BE70021C1765D
:1015700030594068D9E70B21C1737FE7280508007F
:1015800010B50C4603F05AF821888A00954989580D
:101590000968002902D0944BC968995010BDF8B56C
:1015A0000E461046150A02F035FFAC008D4F00289C
:1015B00017D0142815D0152809D038596030C07BB1
:1015C000C00606D53D21284602F0A8FF09E002200A
:1015D00008E003F039F8012803D131462846FFF727
:1015E00099FC002039590968002902D07E4AC9684F
:1015F0001151F8BDFFB50F461546110A794A88000A
:10160000125881B012681E46002A01D0D46803E047
:10161000754A002314581350002C18D0201F4288FC
:10162000724B9A4213D10088602810D12046403076
:1016300002898A420BD18088002808D0A06800283F
:1016400002D0204603F006F8204603F009F833469E
:101650002A463946019803F009F805B0F0BDF8B5FF
:10166000160A604CB5006059174600281CD040305F
:10167000017E104602F0F2FE384602F0CBFE012851
:1016800002D006280FD108E061596031C87B0207FB
:1016900009D5F7221040C87305E060598030417CBD
:1016A000304602F03BFF0020F8BDF0B506460502CB
:1016B00085B0681C009080B2014602904C4802F050
:1016C000C1FE0121029802F0C9FE02F0BDFF454CA7
:1016D000B7000128E05903D06030C17BE72214E055
:1016E0006030807B002809D07D2252014048029959
:1016F00002F0C2FF0321029802F0B0FE304602F071
:10170000C1FFE0596030C17BEF221140C173E15944
:101710006031C87B420711D5FB221040C873009886
:10172000ED1D82B232480024A9B204230D3802F024
:1017300037FF4680047002F045FF8EE7002201214A
:10174000304602F0A5FF88E710B51046140A02F0F3
:1017500061FE0B280CD02349A00008586030C07BE4
:10176000C00603D53D21204602F0D8FE002010BD62
:101770002046FFF79AFFF9E770B510460D46140AA8
:1017800002F048FE002819D0142817D015280BD0D5
:101790001449A00008586030C07BC00606D53D2122
:1017A000204602F0BBFE09E0022070BD02F04CFFB3
:1017B000012803D129462046FFF7DEFB002070BD3B
:1017C00070B50C480378021D00210B4D07E0CC00DA
:1017D000165D012E01D12418A560491CC9B2994299
:1017E000F5D370BD4C030800208000203883000032
:1017F0002404000004060800804B00200520000798
:1018000001883022114301800188032211430180A5
:10181000704705200007018830229143018001882C
:101820008908890001807047FEB50020854E034677
:1018300028220021424392198C00491C13510A2985
:10184000FADB401C0428F3DB01F004FD7D48002294
:10185000083802604260154600247B486900475AF8
:101860000120A04080B207421CD028206843801984
:10187000A1004058411C19D0002810D0C1172246A1
:1018800002F00CFF2A0102F009FF6E4B083B1A68B8
:101890005B6810436B4A1943083A10605160641C3E
:1018A0000A2CDDDB6D1C042DD6DBFEBD00950194FA
:1018B00000BEE3E7F8B5164604460D460A461F4645
:1018C0000120002102F0EAFE220102F0E7FE5D4B5A
:1018D000083B1A685B6810401940084300D100BEFD
:1018E000032C00D1042459496001401869000818EC
:1018F0003E43C680F8BD70B504460D460A46012039
:10190000002102F0CBFE220102F0C8FE4D4A083A47
:101910001368526818401140084300D100BE032CE0
:1019200000D104244949600140180121A940818067
:1019300070BD70B504460D460A460120002102F034
:10194000ADFE220102F0AAFE3E4A083A1368526830
:1019500018401140084300D100BE032C00D10424DC
:101960003A49600140180121A940418070BDFFB58E
:1019700081B00C4605460A461F46012000210A9EFA
:1019800002F08CFE2A0102F089FE2E4B083B1A68F9
:101990005B6810401940084300D100BE002E21466C
:1019A000284602D0FFF7C5FF01E0FFF7A4FF3B4642
:1019B00021462846039AFFF77DFF05B0F0BD70B5BC
:1019C00001242146133881400D4688B200F02AF8E0
:1019D00084401F48C189A9430C43C48170BD10B520
:1019E0000446133804280BD82046FFF7E8FF1549B2
:1019F000A000A03140188038406B002801D08047FB
:101A000010BDE106C90E012088401249086010BDD2
:101A10001320E4E71420E2E71520E0E71620DEE7D4
:101A20001720DCE700280AD0411E4840C003010C03
:101A3000002001E04908401C0029FBD100E01020F3
:101A400080B2704728900020904B0020003000505A
:101A50000014005080E200E070B504460D460A46CE
:101A60000120002102F01AFE220102F017FE0A4AAC
:101A70001368526818401140084300D100BE032C7F
:101A800000D1042405496001401800880121A940C3
:101A9000084000D0012070BD209000200030005090
:101AA000FFB585B01446012000210F9F069A02F071
:101AB000F5FD059A120102F0F1FD3A4A13685268E9
:101AC00018401140084300D100BE37A000680290C2
:101AD00020461338FF26013686400090B0B2FFF74B
:101AE000A1FF002F01D0012100E000212F4D8140F6
:101AF000A889B0430143A9813F20FFF793FF8740A6
:101B0000A889800980010743AF81B0B2FFF78AFF3F
:101B10000E998140288AB043014329820126009909
:101B200030468840074680B2FFF77CFF0899814025
:101B3000288AB843014329823F20FFF773FF0599A4
:101B400002AA525C06995118814018486200403838
:101B50001018428B9209920111434183A007C20ED3
:101B6000FF21914080209040002C0BDA2207120FB9
:101B7000083A93080E4A9B009B18DA698A4302438D
:101B8000DA6107E0A3080B4A9B009B181A688A4396
:101B900002431A60E006C00E86400748066009B09E
:101BA000F0BD00002090002001090F190014005022
:101BB00000ED00E000E400E000E100E00246133A3E
:101BC000042A04D8024A8000801880384163704794
:101BD000C890002008430121890303460B432E4986
:101BE0000B802E4B18430880092002434A8070471F
:101BF00029490A880F239B0100079A43800D02435D
:101C00000A80704724482649028802231A4302802A
:101C1000491E02D302889207FAD40021018140892B
:101C200070470AE000BF00BF00BF00BF00BF00BF99
:101C300000BF00BF00BF00BF00BF401EF2D2704710
:101C400070B50222510204464E003046FFF7C2FF33
:101C50001420FFF7E6FF002C01D0092000E0072048
:101C6000FFF7C6FFFFF7CEFF05460120FFF7D9FFBC
:101C7000022200213046FFF7ADFF002C01D00920E1
:101C800000E00720FFF7B4FFFFF7BCFF4019024A4E
:101C90000021118070BD00000015005001400000BF
:101CA000A086010008B589210520000701810121D6
:101CB000614A490311800188802211430180018813
:101CC0008908890001805D48018A0222114301824E
:101CD00000F062F902F0E8FC02F0ECFC002069463A
:101CE00001E00888401C088008889128F9D308BDC5
:101CF00008B55349002008804880534A514BD3808F
:101D0000FF23D2331381C880C32151804F4A082159
:101D100011806946088003E06A461188491C1180D9
:101D2000694609889129F7D36946088003E06A4625
:101D30001188491C1180694609889129F7D36946A1
:101D400001E00888401C088008889128F9D308BD64
:101D50003F4A5080918001201080D088C007FCD17C
:101D60007047F1B5FFB0FFB094B011AC33480494A4
:101D7000008AA41C1090FFF795FF314801880F914D
:101D800041880E913049CA880D920A890C92C28806
:101D90000B92408B0A902F484088099048888446CF
:101DA000FFF7A6FF00252B46FF2111A8FFF7D0FF64
:101DB00000210A460846049E275C365C7E40F607F2
:101DC000F60F8E401643491CC9B2F2B2082906D15B
:101DD000FFA9C96C4A556D1C0021ADB20A461030EE
:101DE000FF2680B2B600B042E5D95B1C9BB2022B45
:101DF000DAD312491098088214490020088010484C
:101E00000F9901800E9941800F490D9ACA800C9A52
:101E10000A810B9AC2800A9A42830E4A099850801E
:101E20006046488005200007018880229143018098
:101E30007FB07FB015B0F0BD00020040E030005030
:101E400000240050808000006028005020200050B6
:101E5000003500500026005002480068002800D0DD
:101E600000477047DC90002030B4344C334934488C
:101E7000603409E043681A780A6002685B1C521EED
:101E80000CC00838002A05D0A28B9207D20FF1D1DE
:101E900030BC7047002242604B680224A3434B6071
:101EA00081680029F4D0826030BC0020084710B55A
:101EB000224881680907090F01291AD002291CD07C
:101EC000042917D00C2914D11D4A117E012910D1E3
:101ED00041690906C90F0CD00021D16011618388C6
:101EE0005B085B0083805369002B02D001205161A5
:101EF000984710BD00F004F810BDFFF7B5FF10BD06
:101F00000F490E4809E002680B691A70CA685B1C29
:101F1000521E0B61CA60002A04D04269D207D20F58
:101F2000F1D1704700220A6143685B085B0043609F
:101F30004B69002BF5D000204A6118470011005072
:101F40003880002030B58E498E48CA051488802319
:101F50001C4314808C4C65892D0701D4491EFAD28C
:101F60008A4C012121608A4C01882180894940885E
:101F7000088010889843108030BD0020704770475B
:101F8000704770470020704701218907086B0722BE
:101F9000104308637047704730B580497E48086039
:101FA0007F494C2008807E4C7E4B203C23827F4919
:101FB0007D4848807F487E4901807D4919314180B4
:101FC000222141818121890001827B4941827B4913
:101FD0000183794911314183764A794920329180D0
:101FE0004122784912018A80774ACA80764D10359D
:101FF000CD810A824A82921C8A826A1FCA82FF228B
:1020000046320A83714A4A83714A592111807049C4
:10201000704D20310D8043254D806F4D5582D52266
:102020008A80FF22D3320A816C4A4A816C4A8A81B3
:102030006D4A6C4911805A496C4A60394A80CA8895
:1020400010252A43CA80634A0A3A0A81544D684AD5
:10205000403D6A80638208224A814E495C4A098871
:10206000403A11824A49634A0988118062490978D5
:10207000002901D03021018330BD4008704700B5F0
:102080008BB05E4A42625E4A82625E4A42615E4A4A
:10209000C2625E4A02605E4A02625E4A42605E4A14
:1020A000C2613E4A3C48002110603C484038026B07
:1020B00003129A430263426B1F231B049A430323B8
:1020C0001B04D218426355480268C3129A43026047
:1020D000026803139A43026068464154491CC9B21E
:1020E0002829FAD3014628224D4802F009F9FFF7C2
:1020F00053FF02F047F94B490880002002F048F9ED
:1021000002F04CF90BB000BD10B5244A0F21224853
:102110000902106021484038426B1F231B049A4378
:1021200003231B04D218426300060268D208D200BF
:10213000026005200007028992089200521C028169
:10214000028908231A430281028A0A4302820E4846
:102150004189890504D5018878229143083101809D
:10216000FFF71AFF3048006F0078002804D02F488E
:1021700000880B496039C880012002F03FF910BD8A
:10218000A0860100087F040020000050008000406D
:10219000560208004A0308004C055407800000401E
:1021A000602C00507F7F0000AC290000002200500E
:1021B00009090000002400502204000030D0000073
:1021C000EE110000002500502E0200004420000007
:1021D000402800500D95000002420000E4DC0000A1
:1021E0001092000053780000002A00508B1000006D
:1021F0009DD5000000260050548000207B1F002049
:102200007F1F0020851F0020891F0020811F0020C4
:10221000971F0020831F00207B2000200002004029
:102220002000080078040800E001002052040800A3
:1022300070B50125AD07AC6B2046FEF748FCC049E0
:1022400002F066F927221201511A00D10121BD4A7C
:1022500050601160286B0821884308432863BA48FE
:102260000460BA480068002802D0A04200D200BE34
:1022700070BDF0B587B000246A461472B4490A688C
:10228000002A5DD0114640318B7C002B58D0B14BD9
:10229000012813D0108D1A460007803A0125126FCD
:1022A000C00EED044019105A6A46800B1071107967
:1022B000002845D01079012802D00DE0D86C09E043
:1022C00008894E256843A44D1A684019105ACA7CE3
:1022D000000A801A6A461072107A002829D09F4A94
:1022E0009E48603A007B956E05E02E224243AC1872
:1022F000401C4007400F6F463A7A561E3E72F4D299
:10230000A2785406640E3C713A79D406E40E3C7609
:102310009A692E235843904B463BC018105A3A46B0
:10232000C006C00F38713879002802D1107E00280D
:1023300006D0087D002803D1C87D08221043C87547
:1023400007B0F0BD10B5052000074189890708D006
:10235000418989088900418181494A88520852008F
:102360004A800189802211430181018A042291431C
:102370000182818A8907FCD502F0A2F90120800739
:102380000169490700D500BE01694907FCD510BDA8
:10239000F8B5744EF08800282DD10120F0807249E4
:1023A0000820088005273F077889800720D0B88A51
:1023B000400701D500F0BCFF694D28888021084303
:1023C00028806A4CFF20608004202080FFF716FAE6
:1023D0007D21C900E088A288000480188842F9D9CC
:1023E00005202080B088788029888020814329803A
:1023F0005F4910200860F8BD70B5FFF70AFAFFF7D3
:10240000A1FF0026574C0520E6800007418A802264
:102410009143418254480189490849000181D0050E
:10242000816904221143816102F050F95049102062
:1024300080310125086002F04FF902F053F9484855
:1024400026704089800510D5607800280DD1494854
:1024500065700088C00708D10120FFF7F1FB8B21D0
:102460008900884201D90220607070BD10B502F069
:102470003FF900F05DF83B490120087010BD10B530
:1024800001208007008A000601D500F051F810BD38
:1024900010B50120FFF7EDFE02F030F910BD10B5C8
:1024A0000124A407208A000718D50220FFF7E1FEC7
:1024B00002F02AF9206840004008610008432060CB
:1024C0002068C00FFCD11F48803001680906090E42
:1024D00001D00121016023490420087010BD70B5AE
:1024E0002548008885062548AD0E44681948006FC8
:1024F0000078002802D1284602F00CF92048008913
:10250000184EC00507D520060BD5E00709D0284690
:1025100002F006F903E0200603D5E00701D003200E
:102520003070200403D5E00501D50220307070BD65
:1025300010B50C490120887002F0F8F810BD0000B9
:102540007102000040000040648000206080002094
:102550006C030800E00100204A000800380308006E
:10256000200000505680002000330050001600501C
:1025700000E200E000150050002000500002004082
:10258000002C0050FEB55C4C0026606D3746009074
:10259000FEF7BEF9594D002802D12879022801D151
:1025A00000200090FEF7BDFA00280ED102F0C4F81A
:1025B00000280AD051480126C078002805D00525FA
:1025C0002D07A88AC00701D0042692E001F0AAFED8
:1025D00000287DD14A488069002801D0606D0090B4
:1025E0004648009C8178684602F0ACF800286FD01D
:1025F00042488178684601F08FFE002879D000209B
:1026000001900094FF202D300124A407216A81420B
:10261000FCD33A488178684602F094F8002868D0E4
:1026200036488178684601F077FE002861D000982E
:10263000002804D00199002901D0401E00903149A2
:10264000002209788320022900D1B5202E490B7879
:10265000012B00D121300A70E26B0F21920A920205
:102660000A43E263E16B294A800211400143E163BE
:10267000E06B3721C002C00A89050843E063009877
:102680000426002801D0001D0090C002642101F042
:102690003FFF002800D0401E1D49086017490979F6
:1026A000002900D0012102F053F81A48C06A80477F
:1026B000FEF764FA002808D02888302108432880D3
:1026C00028880321084328800127206B000400E0AC
:1026D0000FE0C00FF9D010480168C905FCD5002FE4
:1026E00001D0FFF796F802F039F828898021884355
:1026F00028813046FEBD000060020020C6060800AA
:10270000A80508005402080057800020FF03E0FFDE
:10271000608000201C0708000002004010B50C4635
:10272000098800290FD04288007906230102F34866
:102730000C3101F035FF1021017021884180618842
:10274000818001F03FFF10BD10B5428800790C4632
:102750000102EA4808230A380C3101F021FF052163
:1027600001702188418061888180022141700021AF
:102770008171C17101F026FF10BD70B50D46098849
:102780006A796B888A1801790024090240880C3123
:10279000521E5B1C9A4216DB0246D84808230A38B0
:1027A00001F0FEFE0146072008706A88521C4A802C
:1027B00028886A798218521E8A80022048708C719B
:1027C000CC71084607E00A460146032002230003B5
:1027D00001F0E6FE447001F0F5FE70BDFFB50E4657
:1027E000194642881D460A3100798BB20102C3485E
:1027F00081B0C01E0C310A9F01F0D2FE0021818001
:102800000181077046800446C58001206070204623
:102810002A460A30039901F073FD204601F0D2FEEA
:1028200005B0F0BD1CB56B461A71120A5A710C2224
:102830000092022301AAFFF7D1FF1CBDF0B50546A7
:102840000020044611E066008E5B002E0BD1A6002E
:10285000B618B778FF2F06D1F67806277E439E5B21
:10286000002E00D08320641CE4B2AC4201D20028C8
:10287000E9D0F0BDFFB581B01D46164607460024DD
:1028800016E0A0008119CA780A998A420ED1325AFC
:10289000A978E81C01F068FF002807D002996000C1
:1028A000095A002902D102992A880A52641CE4B20A
:1028B000BC42E6D3B4E7F8B500240546002815D09D
:1028C0008F48C069884211D9286800280ED08F002F
:1028D000C659002E0AD0002A01D030469047304613
:1028E00001F0BEFE29680020C85100E08124204686
:1028F000F8BD70B58124054600281DD0804EF069D2
:10290000884219D92868002816D02846FFF7D3FF37
:10291000040011D10146F26904E08B002868491CCB
:10292000C058C9B28A4202D90028F6D004E0002873
:1029300002D1284600F0ABF8204670BD02460020C8
:10294000002A02D0080A800010587047FFB581B0F5
:1029500007461E460D46039801F05CFDB0421CD0B0
:1029600038680399FFF7EAFF040016D062882188CF
:102970000423284601F014FE05460A982880608842
:102980000B9A010A3846FFF7B4FFA870284601F0F9
:1029900019FE3146039801F061FD41E7F8B50C7965
:1029A00015460E460746FF2C1BD07088010AA1422F
:1029B00008D02102C0B201433288284601F0DAFE75
:1029C0008C250FE01A462146384600F06AF80500CB
:1029D00008D13868A10040580622314601F090FC29
:1029E00000E089252846F8BDFFB507460068444D3C
:1029F00081B00E4600280ED0002406E0214638465D
:102A00000A9AFFF758FF641CE4B2E869A042F5D8BF
:102A1000384600F03CF8F0B2049901F0B1FE002411
:102A200006E020023043039901F018FD641CE4B273
:102A3000E869A042F5D8F3E6FFB581B01F46154618
:102A40000C4608460A9E01F0E5FCA84208D139462A
:102A5000204601F003FD210A32460198FFF749FFA5
:102A6000DEE610B500F0F8FD10BDF8B5040206462C
:102A7000363417460D46204601F0CCFC002805D020
:102A8000EAB223463946304601F080FEF8BD10B563
:102A900004460068002803D001F0E2FD0020206019
:102AA00010BDF7B5054600680024154E0F460028F6
:102AB0000BD1F0690121800001F06EFE2860002832
:102AC0000BD0F169890001F05FFDF069B84212D9BD
:102AD0002868BF00C059002801D089240CE00121DA
:102AE000029801F059FE0600F7D0029901F05AFE53
:102AF0002868C65100E081242046FEBD0C3000004D
:102B0000E0010020FFB581B00A9E154670790F469E
:102B100010282CD1002428E0122004996043421888
:102B200010231946B01D01F043FE00281BD020469B
:102B30000622318850432952728841194A803279DD
:102B40000A712B5C019AD21A521C4A710B990978AE
:102B5000A14206D006225143285C6A5C801A4919BA
:102B600048710B980470641CE4B2BC42D4D305B025
:102B7000F0BD70B5428800790D46010216231C484D
:102B80000C3101F00DFD044603202070012060800F
:102B9000801EA0801020607002462946A01D01F012
:102BA000AFFB204601F00EFD70BD70B5054600205C
:102BB00003460FE006245C430E5B002E0FD0122666
:102BC0005E43B6186418767C2479A64300D085202D
:102BD0005B1CDBB2AB4201D20028EBD070BD1224EB
:102BE0005C43A418247CFF2CF2D18320F0E7000082
:102BF0000230000010B500F038F90120FDF771FE39
:102C000010BD00000021A04A05E0834201D101204F
:102C10007047491CC9B20C234B43D35CFF2BF4D142
:102C200000207047F8B505460024974E0AE0801949
:102C30008168002904D0641CE4B22846884701E07A
:102C4000641CE4B220460C214843315CFF29EED1DC
:102C50008D4E0024183609E08F19B968002903D079
:102C6000FFF7D0FF002808D0641CE4B221460C20F6
:102C70004143705CFF28EFD1F8BD641CB968E4B231
:102C800028468847F2E770B57F4A804C15461835CC
:102C90000DE089184968002907D0C1B20C235943B7
:102CA00089184968401C607025E0401C607060789D
:102CB0000C214143535CFF2BEBD10AE049194968D1
:102CC000002903D0FFF79EFF00280DD02078401C7C
:102CD000207021780C204143685CFF28EED1002051
:102CE00060702070012070BD20780C21414349198B
:102CF0004968401C20708847002070BD10B5634CA7
:102D0000206900281ED1252332220D21604801F0C0
:102D100047FC1221206101700021417064228280F1
:102D2000FF2281328281FF226132C2810A22028225
:102D300042828182FF21F531C182202101834183BA
:102D400001210177206910BD70B5504DA868002899
:102D500021D14F48222332220D210D3801F020FCD1
:102D6000032101700446A8600520474960701022C5
:102D70002339A01C01F0C4FA00216182217561751C
:102D8000A020E0820820208310206083A18364209B
:102D9000E08320342170A86870BD1CB53B480C212D
:102DA000183001F0FFFC01246846047004716A4683
:102DB00001A9352001F002FD002801D06846047009
:102DC0003249002018310C2242435218401C0006A0
:102DD0001471000EF7D02C493220243101F0D0FCC0
:102DE0000021322001F03AFB1CBD70B50D460102F6
:102DF00014462C23322227480E3101F0D1FB014624
:102E000020310D724C7201F0DDFB70BDF8B5144637
:102E10000E460546FFF772FF074601203877384611
:102E2000062231461D3001F06BFA2320C5557C8205
:102E30003C82F8BD10B5FFF761FF01F0C3FB1349F9
:102E40000020086110BD10B50121322001F006FB01
:102E5000FFF719FF10BD16E710B5FFF775FF01F07A
:102E6000B1FB0A490020886010BD084910B5002058
:102E7000FF232431012442008B545218401CC0B25D
:102E800054700A28F7D310BDD44B0020688000206E
:102E90001134000002380000FEB51C46089B0726CE
:102EA0005D4D6F4668C71346224600F0DAF8FEBD56
:102EB00010B5104601F0AEFA002809D101233222E4
:102EC0000D21564801F06CFB0121017001F07AFBE5
:102ED000002010BD70B5504C0D78241F0F2D13D05D
:102EE00008DC012D12D0022D0AD0032D14D00E2D96
:102EF00006D109E0102D15D0112D13D0122D15D0AB
:102F00002568002D00D0A847002070BD4878002813
:102F1000FAD1FFF7A1FFF7E748780028F4D100F0D5
:102F200058FEF1E7487800F05CFEEDE74878442869
:102F3000EAD100F077FEE7E7F8B51C4610460E46EA
:102F400001F068FA022824D1240A00D000BE0C2027
:102F50002746474332483D18AC70FF2C15D001215D
:102F6000E9700521322001F079FA2D483188C153EA
:102F7000707A68713146A81D06220A3101F0C0F945
:102F8000002211462046FFF730FF3146204600F070
:102F9000FFFD0020F8BD70B50C46097816460A29D9
:102FA00009D01D4D2D1F2968002902D021462C680B
:102FB000A047002070BD104601F02CFA0428F8D17B
:102FC00060780028F5D10521304601F047FAF0E796
:102FD00010B510460C4601F01DFA032803D0052851
:102FE00001D0042802D1204600F0F2FD002010BDDF
:102FF00010B510460C4601F00DFA012804D12078D6
:10300000002801D1FFF727FF002010BD10B50846AA
:1030100000F0F7FD002010BD0C4C00200234000031
:1030200080800020FFB583B01E4F002401AEA000B9
:1030300000963D5803A80FC8A84700280ED0641C6E
:10304000032CF4D3174C241F2068002803D003ADB1
:103050000FCD2468A047002007B0F0BD6846007976
:10306000FAE7F8B5089C9C46079D0346002C16D04D
:10307000641E14D40C4FE600AE5B9E4201D0BE42EB
:103080000BD1E3005B195C68002C08D01346624644
:10309000A047069908700020F8BD641EEBD50120FA
:1030A000F8BD0000584C0020FFFF000010B50520BF
:1030B00000070089000608D501208007006B000486
:1030C00003D401F02FF9C00701D0002010BD01206A
:1030D00010BD000070B51049049C4118052901D3AA
:1030E000012070BD00F00FF80025002807DB0B4A17
:1030F00081005058002803D05550804700E000BEA2
:103100002570002070BD04494018052801D240B246
:1031100070470020C0437047F337FFFFA8800020AE
:103120007047000070B5474A00248318049D002BA7
:1031300018D0454A012B06D04249891E41180A2958
:1031400019D3012070BD0978481E092808D88900C4
:10315000091F51583D4B99421ED1800014501BE06D
:1031600000BE19E04A8808783949401880B23221F7
:1031700001F082FA10E03349491E4018C0B2411EE6
:10318000092908D8800081188039C86F002803D029
:10319000CC67804700E000BE2C70002070BDF8B501
:1031A0000446401E09281CD82748A1000D18803D60
:1031B000E86F002813D0254EB04210D0244F3221A2
:1031C000E01980B201F03EF932220123114638465F
:1031D000EE6701F0E5F9047001F0F4F9F8BD00BE06
:1031E000F8BD00BEF8BD70B50546174A0020830043
:1031F000D358002B04D0401C0A28F8DB002070BDF7
:103200008300401C0406D150240EF7D0FFF74EFF78
:10321000002807D00E482A46201880B2322101F03B
:103220002BFA0CE0FDF777FB094832220423114604
:10323000401E01F0B5F94580047001F0C3F9204645
:1032400070BD0000FF37FFFFBC800020213100204F
:1032500002C8000070B5444800220169D243002929
:1032600001D0114600E00121CB170C0F1B012343B5
:103270000C0101613D490D684E682C4333430C60DD
:103280004B604369002B01D0144600E00124E31792
:10329000E50E5B012B4344610D6864014E682C43CD
:1032A00033430C604B60C368002B01D0144600E030
:1032B0000124E317650FDB002B43C4600D68E400B5
:1032C0004E682C4333430C604B608368002B00D165
:1032D00001228260D017930F800018430C6892007F
:1032E0004B68224318430A60486070BDF8B500245B
:1032F00003252D0202232A46042120460094FEF7CE
:1033000036FB01231E023246052100200094FEF701
:103310002EFB14232A46032100200094FEF727FBEE
:1033200013233246022100200094FEF720FBF8BD53
:1033300010B505242407208A022188432082A08A10
:103340000007FCD50A484188FF2201321143418021
:10335000FDF714FDFFF7CAFF00F0B6FD608A2021DB
:103360000843608210BD00002890002020900020BB
:103370002000005030B40021B148B24A07E0036891
:103380005569641E2B706D1C5561491C146143699D
:10339000DB07DB0F02D01469002CF0D1002907D025
:1033A000002050619369002B07D0906130BC184712
:1033B000426801218A430A43426030BC7047A048FA
:1033C0004069C007C00F01D000207047012070473E
:1033D0009B4922200861704700B5012202239849C9
:1033E000002803D00869984308611AE0486940063C
:1033F000C00F15D048698006C00F11D0FFF7DFFF5E
:1034000000280DD0086998430861FF238733022004
:10341000401C9842FCDBFFF7D2FF002803D000E0FD
:103420000022104600BD22200861F9E7FEB5012701
:103430008548FE04066002210020FEF70DFB0025F2
:10344000804C002818D002210020FEF705FB002840
:103450000CD0E169002901D00020884700950123A4
:103460000195132202210020FEF71AFB774806601F
:10347000754880380660FEBDE169002901D0012051
:103480008847002300970195EBE77CB505221207DA
:10349000948880231C439480694A94899C43948136
:1034A000872414810025958094891C4394819580FC
:1034B000958010809181908998439081012662497E
:1034C0005801086062490A684023120A12021A432E
:1034D0000A605D49803908605C4908605D491320D5
:1034E000FEF76CFB02210020FEF7B6FA554C0028CF
:1034F0001FD002210020FEF7AFFA00280CD0E169AE
:10350000002901D00020884700950123019513224E
:1035100002210020FEF7C4FA4A4820300570656198
:10352000E56125616560267200202560FFF754FF84
:103530007CBDE169002901D0012088470023009665
:103540000195E4E73F48006870473E4B9A61196176
:1035500058613B48012142688A430A4342607047F0
:10356000384BDA6019603649586048680222904347
:103570001043486070473349C861704710B5304800
:1035800081680907090F01291FD002291ED00429CB
:1035900019D00C2919D12B4920310978012912D1D0
:1035A00041690906C90F0ED0264900220A614A6105
:1035B00083885B085B0083808B69002B03D08A6162
:1035C000002101209847FFF7D5FE10BD00F013F849
:1035D00010BD00B51A4841694906C90F09D04069B4
:1035E0008006C00F05D0FFF7EAFE002801D00020BA
:1035F00000BD012000BD30B4114C114B11486034A6
:1036000009E0016800290BD0426815781D60491E49
:10361000521C06C00838A18B8907C90FF1D1CCE62E
:103620000022426059680224A1435960017A0029AE
:10363000F5D0C1680029F2D0C26030BC0020084734
:1036400000100050E480002080E100E080E200E013
:103650000CE400E02D34002008B500200246009064
:10366000574B36215748FFF7BFF908BDFEB5154641
:103670000E4604464A8809881E23534800F090FFEE
:103680000746307901F0A0F83880BD702846002543
:1036900000280AD000957188002302224948FFF7CC
:1036A000CBF9384600F08EFFFEBD1A22A118381D56
:1036B000009100F025FE20460099FFF72FF8218E9B
:1036C00001223046FFF7AEF8618E01223046FFF747
:1036D000A9F82946254620352975012068752977DE
:1036E0006977694608710D200090A18D012301AA18
:1036F0003046FFF773F8297F491C2977708801212C
:1037000000F0ACFECDE770B50E46054601882E48A8
:1037100004233622C01C00F043FF0446287901F040
:1037200053F82080A670204600F04CFF70BDF8B51D
:103730000646101D83B2244815460F4631883622AE
:10374000001D00F02DFF0446307901F03DF8208087
:1037500065802A463946201D00F0D2FD204600F043
:1037600031FFF8BD70B50E460546018816480423A2
:103770003622801D00F014FF0446287901F024F859
:103780002080A670204600F01DFF70BD70B5047E3D
:103790000346002290004018C078844209D20625D2
:1037A0004543ED18EE8B002E03D02035ED78022D29
:1037B00004D8521CD2B2022AECD3032070BD000000
:1037C000644C0020804D002001D800007CB51C46D0
:1037D00015460E46088800F0FDFF01466846017157
:1037E00045800480402332466946BC48FFF7D6F83E
:1037F00002468C2804D0002A04D06946002012E03A
:1038000001207CBDB54829460068FFF797F80446BB
:10381000B07800280AD01A22311DA01800F070FDDF
:10382000002269462046FFF721FF10E0ACA30FCB32
:103830000526F602E680264608360FC621460831E0
:103840002046FFF796F90221284600F007FE0020E7
:103850007CBD10B5A1480C4611460068FFF76EF814
:103860002188418361888183417E491C4176002003
:1038700010BD1CB599480C4611460068FFF75EF86C
:103880000246183000940190908B994B03211E3210
:10389000FFF738F900201CBD38B590480C4611469A
:1038A0000068FFF74BF8017E0091914A01462346DC
:1038B000083A30310220FEF7DDFF002038BDF0B5B8
:1038C00085B014460E46104600F0A4FD0746834816
:1038D00021460068FFF732F800250446022F02D087
:1038E000012F5AD06FE072780A2A03D0002A01D043
:1038F000014619E07AA30FCB6E460FC62046102270
:103900006946083000F0F6FC00285CD10521E0880B
:10391000C902CE1C884214D1608B002808D0607E7A
:10392000012807D9842221460846FFF79FFE4AE076
:103930008322F8E721461A312046FEF705FFE6808C
:1039400041E0B0420DD121461E31694A0E460320A6
:10395000FFF72BF90200E6D1E580257631462046B7
:103960000CE0634920460839FFF710FF2076032852
:1039700007D006214843011920461E31FEF7FDFEFF
:1039800021E05B4A234621461E33083A30310220AB
:10399000FEF754FF65760246C5E730780D2812D150
:1039A00020462030017F002900D100BE491E0906B3
:1039B000090E017707D1417F002904D0457771783E
:1039C0002046FFF7A0FE002005B0F0BD1CB508881A
:1039D00000230090474901934048FEF7B7FF0020BD
:1039E0001CBDF8B53D480D4611460068FEF7A6FF20
:1039F0000446818DA888814229D1A8790026012812
:103A000002D002281CD02AE00127254620352F7538
:103A100039462046FFF7A6FEA26B002A0ED00D20E5
:103A20000090538AE18C20461432FEF7D7FE6F7760
:103A3000287F401C2877A06B00F094FDA6630EE061
:103A40003420065502212046FFF78CFE07E0218C2A
:103A5000814204D16A88A91D2046FFF768FE002034
:103A6000F8BDF8B51D480C4611460068FEF766FF24
:103A70000546362000F0CEFC012811D12E46203616
:103A8000307D00280ED00D2000906388E98C221D27
:103A90002846FEF7A3FE01207077307F401C307768
:103AA0000020F8BD103C0120AC63F8BD38B50B48D0
:103AB0000D4611460068FEF741FF04460D200090B8
:103AC000A18D0123AA1C2046FEF788FE2046203047
:103AD000017F491C0177002038BD0000804D002087
:103AE000B75C49D204A34071A0B535853EB08307C9
:103AF0007C4C002002D8000010B5142332220D2186
:103B00005C4800F04DFD11210170002141700A2236
:103B100082810522C281017441740121817400F007
:103B200051FD0221322000F099FC10BDFEB51C466B
:103B3000089B0126504D6F4668C713462246FFF783
:103B400090FAFEBDFFB54C4985B08868C96801AEE2
:103B500003C6002403AF083EA0000097355805A80F
:103B60000FC8A847002802D0641C022CF4D309B067
:103B7000F0BD190A10B50902012332223F480E3167
:103B800000F00EFD0021017000F01CFD002010BDB2
:103B900070B50D4604460C203949604340188078C2
:103BA000FF2812D037480078FFF7F9FA2888FFF786
:103BB00039F821020123322233480C3100F0F0FCA5
:103BC0000121017000F0FEFC70BDFFF795FF70BD94
:103BD00092E710B5FFF737F9002801D0FFF78CFF07
:103BE00010BD10B5442802D0FFF786FF10BDFFF7C7
:103BF00021F9AF2025498000FFF7F5FA2149087027
:103C000010BD10B50446122221A10C3000F072FB49
:103C1000002806D160780A22A11CFFF7F7F800F00F
:103C20001BF810BD10B517480078FFF7B8FA00BEB2
:103C300010BD10B500F07BF8FEF7DCFF10BD10B52D
:103C400000F0B1F90021012000F0EEF8002010BDD5
:103C500010B500F081F910BD064810B501233222DD
:103C60000D210C3800F09CFC0221017000F0AAFC30
:103C700010BD00000F3400001C4D00201038000063
:103C800080800020E090002001300000593C00209E
:103C90001107B75C49D204A34071A0B535853EB089
:103CA0008307000038B500220092002808D00228BF
:103CB0001CD000BEC54A08210098FFF746FC38BD5D
:103CC0006C4689B2C24800F0CCFA08222146C048AE
:103CD00000F090FA082800D000BEBD4800F0E9FAD4
:103CE0000028E7D00120FFF777FBE3E708226946C9
:103CF000B74800F07FFA0828DCD000BEDAE710B53C
:103D0000002809D0B248203800F0C3FA002802D0B9
:103D1000012000F090F910BDAD4C203C207F002820
:103D2000F9D1022000F087F90120207710BD10B5ED
:103D3000A74800F0D7F9002816D1A548203800F090
:103D4000D1F9002810D1A34AA148E121A14BC83ADA
:103D5000C900203800F0AAF9FF23FF215F33962223
:103D6000F5319B4800F0A2F99B48FFF704FC0321C2
:103D70000920FFF78AFB00210220FFF793FFFFF7DE
:103D800027FB10BDF8B50026944C009600280AD0F9
:103D9000022820D000BE2178002924D0904A009823
:103DA000FFF7DEFBF8BD8A486D462178203800F029
:103DB00006FA874810222946203800F0E1F9C5B2FA
:103DC0008348203800F065FA002802D0012000F076
:103DD00032F92570DFE77E4810226946203800F06E
:103DE000CFF92070D7E77A4824380670F8BD0A4624
:103DF0000146774810B5203800F088F9744820381B
:103E000000F057FA002802D0022000F014F972B630
:103E10006F4824380178002904D101210170022063
:103E2000FFF7B0FF62B610BDF8B5012600256B4C58
:103E3000002825D0607800283ED1654800F05BF965
:103E40000004000CA08037D04A2804D8A1784A1C6E
:103E5000A2700A2930D30095A5706670802800D919
:103E60008020A08014281FD2A08080226946584854
:103E700000F086F9A0800146009800F0C7F81BE02A
:103E80006570002903D0A188514800F098F9504886
:103E900000F031F980B2A0804A280DD90095A570B4
:103EA0006670802800D980201B21143800F098FC0F
:103EB0001B2148431430D7E7454800F0EAF90028B1
:103EC00001D0FFF785FAF8BD10B54348FFF753FB63
:103ED0003F4800F007F9002807D003210920FFF729
:103EE000D4FA00210220FFF7DDFE10BDF8B53D4DEC
:103EF0000024686D0090FCF70BFD3B4E002802D1BA
:103F00003079022801D100200090FCF70AFE002839
:103F100020D100F011FC00281CD00124052000074E
:103F2000808AC00715D100F0FDF9002812D12F4872
:103F30008069002801D0686D0090B178684600F073
:103F400001FC002806D0B178684600F0E5F90028A9
:103F500000D004242046F8BD1D4810B5203800F0DC
:103F6000CAF800281CD11A4800F0C5F8002817D15B
:103F7000FFF7E8FA002813D1FFF72BFB00280FD139
:103F8000FFF7B4FF04280BD10020FFF725FA002823
:103F900006D00F49012024394870FCF786FC10BD7B
:103FA000FCF776FC10BD10B5094C243C6078002865
:103FB00008D00748007F002805D00120FFF70CFA41
:103FC0000020607010BDFFF703FAF9E7A53C002060
:103FD0002C81002052030000FF3C0020E2900020D2
:103FE000853D002060020020C6060800A8050800E4
:103FF00010B5044636211E233222880200F0D0FA82
:1040000004800021817000F0DDFA10BD70B5064615
:10401000081D0C4683B2322236210D4800F0C0FA4A
:104020000546448022463146001D00F069F92846C5
:1040300000F0C8FA70BD10B50446054804233222CA
:104040003621C01C00F0ACFA847000F0BBFA10BD41
:1040500003D80000FEB51C46089B0426124D6F468F
:1040600068C713462246FEF7FCFFFEBD10B50021CF
:104070000846FFF7D9FE002010BD10B5887800284B
:1040800005D000210020FFF7CFFE002010BD012148
:10409000F8E710B508464988001DFFF7A8FE002084
:1040A00010BD0020704700002C4D0020F8B50446DC
:1040B0000D46481C002103C4656021601E4617465A
:1040C0000321083C00F068FB206100202077AE420D
:1040D00006DAB74204DC002F02DD6761A661F8BD95
:1040E00000BEF8BD002804D00069002801D00120DE
:1040F000704700207047426881688A4204DDC068CA
:10410000801A4018401C7047881A7047F7B504465B
:104110000026EFF31080012181F31088A568616803
:10412000002800D0012080F31088A94206DD481B3A
:10413000401E824200DC104687B20DE02068431B1F
:104140005918491E8A4200DC11468FB2E919814292
:1041500000DD0E1A401EE0602069BA1B401901996B
:1041600000F0CEF801983246C019811B206900F09A
:10417000C7F82168E819814200DC401AA060FEBD42
:1041800030B5EFF31085012383F31088446883680A
:10419000A34201DB1B1B02E0C3681B1B5B1C9A4292
:1041A00000DD1A46006992B200190860002D04D0A3
:1041B000012080F31088104630BD0020F9E710B5CB
:1041C000EFF31082012383F310884368591841608C
:1041D000C3685C1CA14205DB8468A14202DDC91AE8
:1041E000491E4160002A03D0012080F3108810BDD1
:1041F0000020FAE7F0B5EFF31086012383F310886F
:104200000027002A09D085684468AC4208DD0069AF
:10421000631B40195B1E086012E000200F60F0BDB8
:1042200003685B1B5B1E9A4214DD002C06D0631EE4
:1042300004690C608168491EC16001E000230F60C1
:104240009A4200DD1A46D0B2002E08D0012181F337
:104250001088F0BD046964190C600168EBE7002167
:10426000F5E710B5EFF31082012383F3108883681C
:1042700059188160C3685C1CA14202DBC91A491E3F
:104280008160002A03D0012080F3108810BD002037
:10429000FAE700B50346FFF72EFF5969884202DCB2
:1042A000187F012801D0002000BD002018770120D0
:1042B00000BD00B50346FFF71EFF9969884202DD85
:1042C000187F002801D0002000BD0120187700BD14
:1042D000064C0125064E05E0E36807CC2B430C3C59
:1042E00098471034B442F7D3FCF7AEF84C4D002099
:1042F0007C4D002003B40148019001BD773B0300D1
:1043000003B40148019001BD213B030003B40148FF
:10431000019001BDD729030003B40148019001BDFC
:104320002B69020003B40148019001BDC12D0300B7
:1043300003B40148019001BD0921030003B4014801
:10434000019001BDC92D030003B40148019001BDD6
:10435000EB31030003B40148019001BD3D3203007D
:1043600003B40148019001BDD721030003B4014803
:10437000019001BD2F2F030003B40148019001BD3E
:10438000998F020003B40148019001BD938F020090
:1043900003B40148019001BDCD8C020003B4014873
:1043A000019001BD418F020003B40148019001BD9D
:1043B0002768020003B40148019001BD396802007A
:1043C00003B40148019001BDB780020003B4014865
:1043D000019001BD0F3B030003B40148019001BDF2
:1043E000551B020003B40148019001BDCF2B03000F
:1043F00003B40148019001BDCB2C030003B4014874
:10440000019001BD0990020003B40148019001BD73
:10441000831D020003B40148019001BDB3260300CF
:1044200003B40148019001BDFD3D030003B4014800
:10443000019001BD197D020003B40148019001BD46
:104440000522020003B40148019001BDA528030024
:1044500003B40148019001BDD5AF020003B4014887
:10446000019001BD3126030003B40148019001BD54
:10447000A1A5020003B40148019001BDE3A502001B
:1044800003B40148019001BD87A8020003B40148AC
:10449000019001BDA7A9020003B40148019001BD2C
:1044A00093AA020003B40148019001BD95AB02003C
:1044B00003B40148019001BDF9AB020003B4014807
:1044C000019001BD69AC020003B40148019001BD37
:1044D00017AD020003B40148019001BD77AD0200A1
:1044E00003B40148019001BDF1AD020003B40148DD
:1044F000019001BD85AE020003B40148019001BDE9
:1045000011AF020003B40148019001BD3350020015
:1045100003B40148019001BDA73A030003B4014868
:10452000019001BD5548020003B40148019001BD4E
:104530001F50020003B40148019001BD7F0C03002D
:1045400003B40148019001BDAB0C030003B4014862
:10455000019001BDBF22020003B40148019001BDDA
:10456000EB26030003B40148019001BD352403008C
:1045700003B40148019001BD2F22020003B4014899
:10458000019001BDDD20030003B40148019001BD8D
:10459000533B030003B40148019001BD9D2003007B
:1045A00003B40148019001BDB123030003B40148E5
:1045B000019001BD49E5020003B40148019001BD2D
:1045C000F9E3020003B40148019001BDE1230300B7
:1045D00003B40148019001BD4BCD020003B4014872
:1045E000019001BD99D1020003B40148019001BDC1
:1045F000ABD0020003B40148019001BD69D00200B4
:1046000003B40148019001BD77CF020003B4014813
:10461000019001BD01CC020003B40148019001BD2D
:1046200029CC020003B40148019001BD15D202005B
:1046300003B40148019001BD8DD2020003B40148CA
:10464000019001BDB938020003B40148019001BDD9
:10465000BB7F020003B40148019001BD77580200FE
:1046600003B40148019001BDD722030003B40148FF
:10467000019001BD2D42020003B40148019001BD2B
:104680002528030003B40148019001BD7B300200DE
:1046900003B40148019001BDCD2B020003B40148D1
:1046A000019001BD8D3D030003B40148019001BD9F
:1046B000F38E020003B40148019001BD218E020077
:1046C00003B40148019001BD652C030003B4014807
:1046D000019001BDDB2E030003B40148019001BD30
:1046E000231D020003B40148019001BDC32C030047
:1046F00003B40148019001BD1531030003B4014822
:10470000019001BD3B66020003B40148019001BD68
:104710002B66020003B40148019001BD038D020025
:1047200003B40148019001BDCF8F020003B40148DA
:10473000019001BD1B66020003B40148019001BD58
:104740007920030003B40148019001BD2129030031
:1047500003B40148019001BDC768020003B40148D9
:10476000019001BD0D2C030003B40148019001BD6F
:104770001D98020003B40148019001BD1B240300F1
:1047800003B40148019001BD8725030003B401482B
:10479000019001BD95E3020003B40148019001BD01
:1047A0001522030003B40148019001BD533B0300EF
:1047B00003B40148019001BDE997020003B4014828
:1047C000019001BDD129030003B40148019001BD4E
:1047D000E3E3020003B40148019001BDB7E3020026
:1047E00003B40148019001BDD33A030002E008C8B8
:1047F000121F08C1002AFAD170477047002001E05B
:1048000001C1121F002AFBD170470101000A0428D0
:104810000A040203AA0055032A00A001FFFF2C018D
:104820000A000000857502000B0000006B7A020090
:104830000C000000CB7902000D000000A175020001
:104840000E000000D37502000F000000F379020093
:1048500010000000FD750200120000001776020033
:10486000110000005D760200130000008776020050
:1048700014000000B176020015000000D778020095
:1048800016000000097902001B000000F776020004
:104890004D0000005779020017000000217A020045
:1048A000180000001378020019000000537802007D
:1048B0001A000000957802001C0000008D7A0200AA
:1048C0001D000000AD7A02001E000000437A0200C5
:1048D0001F0000007377020020000000C377020071
:1048E00021000000F37A020049000000317B020041
:1048F00000080000B10C0020010000003B7B02001A
:1049000009000000537B0200050000007D7B0200CF
:1049100006000000A77B0200020000000B7C0200E2
:1049200007000000CF7B020000000000F97B0200BE
:10493000030000006B7C0200040000008D7C02007C
:1049400008000000F77C02004C0000006D7E0200B1
:104950002048002026000000544303005049002056
:1049600032040800060001004F0D0020290E00202F
:104970008B120020491300206D130020111200201B
:1049800000000000D90F0020050400008115002060
:10499000060400009339020007040000D939020020
:1049A000080400001F3A020002040000B73B0200A6
:1049B00000040000093C0200040400006F3C0200F7
:1049C00003040000D93C0200010400004B3D02003A
:1049D00009040000D73A02000A040000413B02002B
:1049E0000B0400004D3F0200210400009942020028
:1049F000260400005F16002000080000EF3F0200C0
:104A00003F000000CF4102004B000000C93D020002
:104A10004E000000213E0200230400007F3E020001
:104A200024040000B93E0200270400009B4302005A
:104A300028040000C5430200250400003D43020095
:104A40002B040000F1430200310400001144020075
:104A50003204000059440200350400008D44020075
:104A6000290400009F1500202A0400007917002067
:104A70002C0400006D4502002D040000F7450200E3
:104A80002E0400002B4602002F04000049170020CE
:104A9000330400009346020034040000154702006E
:104AA000360400004547020030040000974702002A
:104AB000010800002D42020001080000F515002049
:104AC00000080000EF3F02000000000000000000AE
:104AD00000000000000000000000000000000000D6
:104AE00000000000000000000000000000000000C6
:104AF00000000000000000000000000000000000B6
:104B000000000000000000000000000000000000A5
:104B10000000000000000000000000000000000095
:104B20000000000000000000000000000000000085
:104B30000000000000000000000000000000000075
:104B40000000000000000000000000000000000065
:104B50000000000000000000000000000000000055
:104B60000000000000000000B84A00200200000021
:104B7000000000000000000088490020260000001E
:104B8000C84A0020784B0020640308001600060085
:104B9000FF003F00FF03FF010000000001020304CB
:104BA0000506A000A000070100010203040506009D
:104BB00005000000000000000000000000000000F0
:104BC000000000000000A0000800100000006400C9
:104BD000000000003600000000000000F13F00204F
:104BE000FF0000000000000000000000FF000000C7
:104BF0000000000000000000000000004C4C0020FD
:104C0000A080002006000100453B00200134000088
:104C1000B12E002000340000D52E00200038000006
:104C2000972F002001380000392F002003380000A2
:104C3000D12F002000C80000F12F00201034000008
:104C40000D300020FFFF000025300020444C0020E4
:104C500001000000453B0020992E00202531002056
:104C6000D5300020FC4C0020144D0020844D002045
:104C7000030006000229FF000229FF02B85C49D2A6
:104C800004A34071A0B535853EB08307FF10BA5C20
:104C900049D204A34071A0B535853EB08307FF0417
:104CA000B95C49D204A34071A0B535853EB08307F5
:104CB000FF1400000B300000E339002003D800008F
:104CC000633A002006D80000AD3A0020053000000D
:104CD00073380020033000005338002006300000F5
:104CE0009938002000D80000CD370020033800009C
:104CF000CD39002000300000BF3800200000000047
:104D000000000000B44C002003000000CC4C002048
:104D100003000000E44C0020030000000F380000F6
:104D2000733B00202D3B00205540002001D800009F
:104D30006D40002004D800007B40002005D8000012
:104D40009340002007D80000A34000208C4D002095
:104D5000008000204C010000FC4700208C4D00200A
:104D600020900020C8000000FC47002068070800D1
:104D7000202A0800E0050000FC470020800C00000D
:0C4D800000000000000000000000000027
:040000052000044192
:00000001FF
